{
  "contracts/StakeEther.sol": {
    "StakeEther": {
      "abi": [
        {
          "inputs": [],
          "stateMutability": "nonpayable",
          "type": "constructor"
        },
        {
          "inputs": [],
          "name": "NotOwner",
          "type": "error"
        },
        {
          "anonymous": false,
          "inputs": [
            {
              "indexed": true,
              "internalType": "address",
              "name": "_address",
              "type": "address"
            },
            {
              "indexed": false,
              "internalType": "enum StakeEther.Duration",
              "name": "_duration",
              "type": "uint8"
            },
            {
              "indexed": false,
              "internalType": "uint256",
              "name": "balance",
              "type": "uint256"
            }
          ],
          "name": "Deposited",
          "type": "event"
        },
        {
          "anonymous": false,
          "inputs": [
            {
              "indexed": true,
              "internalType": "address",
              "name": "_address",
              "type": "address"
            },
            {
              "indexed": false,
              "internalType": "uint256",
              "name": "totalReward",
              "type": "uint256"
            }
          ],
          "name": "WithDrawalSucessful",
          "type": "event"
        },
        {
          "inputs": [],
          "name": "MONTHLY_RATE",
          "outputs": [
            {
              "internalType": "uint256",
              "name": "",
              "type": "uint256"
            }
          ],
          "stateMutability": "view",
          "type": "function"
        },
        {
          "inputs": [],
          "name": "YEARLY",
          "outputs": [
            {
              "internalType": "uint256",
              "name": "",
              "type": "uint256"
            }
          ],
          "stateMutability": "view",
          "type": "function"
        },
        {
          "inputs": [
            {
              "internalType": "enum StakeEther.Duration",
              "name": "_duration",
              "type": "uint8"
            }
          ],
          "name": "deposit",
          "outputs": [],
          "stateMutability": "payable",
          "type": "function"
        },
        {
          "inputs": [],
          "name": "withdrawStaking",
          "outputs": [],
          "stateMutability": "nonpayable",
          "type": "function"
        },
        {
          "stateMutability": "payable",
          "type": "receive"
        }
      ],
      "evm": {
        "bytecode": {
          "linkReferences": {},
          "object": "608060405234801561001057600080fd5b50336000806101000a81548173ffffffffffffffffffffffffffffffffffffffff021916908373ffffffffffffffffffffffffffffffffffffffff160217905550610df7806100606000396000f3fe6080604052600436106100435760003560e01c80633986ebce1461004f578063c17464431461007a578063dcee7fe3146100a5578063ebe41b73146100bc5761004a565b3661004a57005b600080fd5b34801561005b57600080fd5b506100646100d8565b60405161007191906108dd565b60405180910390f35b34801561008657600080fd5b5061008f6100dd565b60405161009c91906108dd565b60405180910390f35b3480156100b157600080fd5b506100ba6100e2565b005b6100d660048036038101906100d19190610922565b610525565b005b600581565b603c81565b6000600160003373ffffffffffffffffffffffffffffffffffffffff1673ffffffffffffffffffffffffffffffffffffffff1681526020019081526020016000209050600115158160030160009054906101000a900460ff1615151461017d576040517f08c379a0000000000000000000000000000000000000000000000000000000008152600401610174906109ac565b60405180910390fd5b6000806003811115610192576101916109cc565b5b8260030160019054906101000a900460ff1660038111156101b6576101b56109cc565b5b036101d15762278d0082600101546101ce9190610a2a565b90505b600160038111156101e5576101e46109cc565b5b8260030160019054906101000a900460ff166003811115610209576102086109cc565b5b03610224576276a70082600101546102219190610a2a565b90505b60026003811115610238576102376109cc565b5b8260030160019054906101000a900460ff16600381111561025c5761025b6109cc565b5b0361027757624f1a0082600101546102749190610a2a565b90505b60038081111561028a576102896109cc565b5b8260030160019054906101000a900460ff1660038111156102ae576102ad6109cc565b5b036102ca576301e1338082600101546102c79190610a2a565b90505b60006103a0836040518060a00160405290816000820160009054906101000a900473ffffffffffffffffffffffffffffffffffffffff1673ffffffffffffffffffffffffffffffffffffffff1673ffffffffffffffffffffffffffffffffffffffff16815260200160018201548152602001600282015481526020016003820160009054906101000a900460ff161515151581526020016003820160019054906101000a900460ff166003811115610385576103846109cc565b5b6003811115610397576103966109cc565b5b81525050610766565b905082600101544210156103e9576040517f08c379a00000000000000000000000000000000000000000000000000000000081526004016103e090610ad0565b60405180910390fd5b60008184600201546103fb9190610a2a565b90506000846002018190555060008460030160006101000a81548160ff02191690831515021790555060003373ffffffffffffffffffffffffffffffffffffffff168260405161044a90610b21565b60006040518083038185875af1925050503d8060008114610487576040519150601f19603f3d011682016040523d82523d6000602084013e61048c565b606091505b50509050806104d0576040517f08c379a00000000000000000000000000000000000000000000000000000000081526004016104c790610b82565b60405180910390fd5b3373ffffffffffffffffffffffffffffffffffffffff167f39f463c7a2e15d846aa8be0a40a1dd2fca9e605085f5fedca23fc5fced447ad88360405161051691906108dd565b60405180910390a25050505050565b60006003811115610539576105386109cc565b5b81600381111561054c5761054b6109cc565b5b148061057c575060026003811115610567576105666109cc565b5b81600381111561057a576105796109cc565b5b145b806105ab575060016003811115610596576105956109cc565b5b8160038111156105a9576105a86109cc565b5b145b806105d957506003808111156105c4576105c36109cc565b5b8160038111156105d7576105d66109cc565b5b145b610618576040517f08c379a000000000000000000000000000000000000000000000000000000000815260040161060f90610bee565b60405180910390fd5b6000600160003373ffffffffffffffffffffffffffffffffffffffff1673ffffffffffffffffffffffffffffffffffffffff1681526020019081526020016000209050600015158160030160009054906101000a900460ff161515146106b3576040517f08c379a00000000000000000000000000000000000000000000000000000000081526004016106aa90610c5a565b60405180910390fd5b42816001018190555060018160030160006101000a81548160ff021916908315150217905550348160020181905550818160030160016101000a81548160ff02191690836003811115610709576107086109cc565b5b02179055503373ffffffffffffffffffffffffffffffffffffffff167f1d0787aee899a49ef81d0b11da9aca5455b46aefed042a41bd398d74619cab0083836002015460405161075a929190610cc2565b60405180910390a25050565b6000808260200151426107799190610ceb565b905060008060006003811115610792576107916109cc565b5b856080015160038111156107a9576107a86109cc565b5b036107b9576005915062278d0090505b600160038111156107cd576107cc6109cc565b5b856080015160038111156107e4576107e36109cc565b5b0361080057600260056107f79190610d1f565b9150624f1a0090505b60026003811115610814576108136109cc565b5b8560800151600381111561082b5761082a6109cc565b5b03610847576003600561083e9190610d1f565b91506276a70090505b60038081111561085a576108596109cc565b5b85608001516003811115610871576108706109cc565b5b0361088257603c91506301e1338090505b60006064826108919190610d1f565b848488604001516108a29190610d1f565b6108ac9190610d1f565b6108b69190610d90565b905080945050505050919050565b6000819050919050565b6108d7816108c4565b82525050565b60006020820190506108f260008301846108ce565b92915050565b600080fd5b6004811061090a57600080fd5b50565b60008135905061091c816108fd565b92915050565b600060208284031215610938576109376108f8565b5b60006109468482850161090d565b91505092915050565b600082825260208201905092915050565b7f596f752068617665206e6f207374616b65000000000000000000000000000000600082015250565b600061099660118361094f565b91506109a182610960565b602082019050919050565b600060208201905081810360008301526109c581610989565b9050919050565b7f4e487b7100000000000000000000000000000000000000000000000000000000600052602160045260246000fd5b7f4e487b7100000000000000000000000000000000000000000000000000000000600052601160045260246000fd5b6000610a35826108c4565b9150610a40836108c4565b9250828201905080821115610a5857610a576109fb565b5b92915050565b7f596f752063616e277420776974686472617720796f7572207374616b6520796560008201527f7400000000000000000000000000000000000000000000000000000000000000602082015250565b6000610aba60218361094f565b9150610ac582610a5e565b604082019050919050565b60006020820190508181036000830152610ae981610aad565b9050919050565b600081905092915050565b50565b6000610b0b600083610af0565b9150610b1682610afb565b600082019050919050565b6000610b2c82610afe565b9150819050919050565b7f5472616e73616374696f6e204572726f72000000000000000000000000000000600082015250565b6000610b6c60118361094f565b9150610b7782610b36565b602082019050919050565b60006020820190508181036000830152610b9b81610b5f565b9050919050565b7f456e74657220612076616c6964204475726174696f6e00000000000000000000600082015250565b6000610bd860168361094f565b9150610be382610ba2565b602082019050919050565b60006020820190508181036000830152610c0781610bcb565b9050919050565b7f596f752063616e2774207374616b652074776963650000000000000000000000600082015250565b6000610c4460158361094f565b9150610c4f82610c0e565b602082019050919050565b60006020820190508181036000830152610c7381610c37565b9050919050565b60048110610c8b57610c8a6109cc565b5b50565b6000819050610c9c82610c7a565b919050565b6000610cac82610c8e565b9050919050565b610cbc81610ca1565b82525050565b6000604082019050610cd76000830185610cb3565b610ce460208301846108ce565b9392505050565b6000610cf6826108c4565b9150610d01836108c4565b9250828203905081811115610d1957610d186109fb565b5b92915050565b6000610d2a826108c4565b9150610d35836108c4565b9250828202610d43816108c4565b91508282048414831517610d5a57610d596109fb565b5b5092915050565b7f4e487b7100000000000000000000000000000000000000000000000000000000600052601260045260246000fd5b6000610d9b826108c4565b9150610da6836108c4565b925082610db657610db5610d61565b5b82820490509291505056fea2646970667358221220b393d2b6040415a370f061639cfe15d70a037189ac53b4219f2ffe0b2dea48c564736f6c63430008180033",
          "opcodes": "PUSH1 0x80 PUSH1 0x40 MSTORE CALLVALUE DUP1 ISZERO PUSH2 0x10 JUMPI PUSH1 0x0 DUP1 REVERT JUMPDEST POP CALLER PUSH1 0x0 DUP1 PUSH2 0x100 EXP DUP2 SLOAD DUP2 PUSH20 0xFFFFFFFFFFFFFFFFFFFFFFFFFFFFFFFFFFFFFFFF MUL NOT AND SWAP1 DUP4 PUSH20 0xFFFFFFFFFFFFFFFFFFFFFFFFFFFFFFFFFFFFFFFF AND MUL OR SWAP1 SSTORE POP PUSH2 0xDF7 DUP1 PUSH2 0x60 PUSH1 0x0 CODECOPY PUSH1 0x0 RETURN INVALID PUSH1 0x80 PUSH1 0x40 MSTORE PUSH1 0x4 CALLDATASIZE LT PUSH2 0x43 JUMPI PUSH1 0x0 CALLDATALOAD PUSH1 0xE0 SHR DUP1 PUSH4 0x3986EBCE EQ PUSH2 0x4F JUMPI DUP1 PUSH4 0xC1746443 EQ PUSH2 0x7A JUMPI DUP1 PUSH4 0xDCEE7FE3 EQ PUSH2 0xA5 JUMPI DUP1 PUSH4 0xEBE41B73 EQ PUSH2 0xBC JUMPI PUSH2 0x4A JUMP JUMPDEST CALLDATASIZE PUSH2 0x4A JUMPI STOP JUMPDEST PUSH1 0x0 DUP1 REVERT JUMPDEST CALLVALUE DUP1 ISZERO PUSH2 0x5B JUMPI PUSH1 0x0 DUP1 REVERT JUMPDEST POP PUSH2 0x64 PUSH2 0xD8 JUMP JUMPDEST PUSH1 0x40 MLOAD PUSH2 0x71 SWAP2 SWAP1 PUSH2 0x8DD JUMP JUMPDEST PUSH1 0x40 MLOAD DUP1 SWAP2 SUB SWAP1 RETURN JUMPDEST CALLVALUE DUP1 ISZERO PUSH2 0x86 JUMPI PUSH1 0x0 DUP1 REVERT JUMPDEST POP PUSH2 0x8F PUSH2 0xDD JUMP JUMPDEST PUSH1 0x40 MLOAD PUSH2 0x9C SWAP2 SWAP1 PUSH2 0x8DD JUMP JUMPDEST PUSH1 0x40 MLOAD DUP1 SWAP2 SUB SWAP1 RETURN JUMPDEST CALLVALUE DUP1 ISZERO PUSH2 0xB1 JUMPI PUSH1 0x0 DUP1 REVERT JUMPDEST POP PUSH2 0xBA PUSH2 0xE2 JUMP JUMPDEST STOP JUMPDEST PUSH2 0xD6 PUSH1 0x4 DUP1 CALLDATASIZE SUB DUP2 ADD SWAP1 PUSH2 0xD1 SWAP2 SWAP1 PUSH2 0x922 JUMP JUMPDEST PUSH2 0x525 JUMP JUMPDEST STOP JUMPDEST PUSH1 0x5 DUP2 JUMP JUMPDEST PUSH1 0x3C DUP2 JUMP JUMPDEST PUSH1 0x0 PUSH1 0x1 PUSH1 0x0 CALLER PUSH20 0xFFFFFFFFFFFFFFFFFFFFFFFFFFFFFFFFFFFFFFFF AND PUSH20 0xFFFFFFFFFFFFFFFFFFFFFFFFFFFFFFFFFFFFFFFF AND DUP2 MSTORE PUSH1 0x20 ADD SWAP1 DUP2 MSTORE PUSH1 0x20 ADD PUSH1 0x0 KECCAK256 SWAP1 POP PUSH1 0x1 ISZERO ISZERO DUP2 PUSH1 0x3 ADD PUSH1 0x0 SWAP1 SLOAD SWAP1 PUSH2 0x100 EXP SWAP1 DIV PUSH1 0xFF AND ISZERO ISZERO EQ PUSH2 0x17D JUMPI PUSH1 0x40 MLOAD PUSH32 0x8C379A000000000000000000000000000000000000000000000000000000000 DUP2 MSTORE PUSH1 0x4 ADD PUSH2 0x174 SWAP1 PUSH2 0x9AC JUMP JUMPDEST PUSH1 0x40 MLOAD DUP1 SWAP2 SUB SWAP1 REVERT JUMPDEST PUSH1 0x0 DUP1 PUSH1 0x3 DUP2 GT ISZERO PUSH2 0x192 JUMPI PUSH2 0x191 PUSH2 0x9CC JUMP JUMPDEST JUMPDEST DUP3 PUSH1 0x3 ADD PUSH1 0x1 SWAP1 SLOAD SWAP1 PUSH2 0x100 EXP SWAP1 DIV PUSH1 0xFF AND PUSH1 0x3 DUP2 GT ISZERO PUSH2 0x1B6 JUMPI PUSH2 0x1B5 PUSH2 0x9CC JUMP JUMPDEST JUMPDEST SUB PUSH2 0x1D1 JUMPI PUSH3 0x278D00 DUP3 PUSH1 0x1 ADD SLOAD PUSH2 0x1CE SWAP2 SWAP1 PUSH2 0xA2A JUMP JUMPDEST SWAP1 POP JUMPDEST PUSH1 0x1 PUSH1 0x3 DUP2 GT ISZERO PUSH2 0x1E5 JUMPI PUSH2 0x1E4 PUSH2 0x9CC JUMP JUMPDEST JUMPDEST DUP3 PUSH1 0x3 ADD PUSH1 0x1 SWAP1 SLOAD SWAP1 PUSH2 0x100 EXP SWAP1 DIV PUSH1 0xFF AND PUSH1 0x3 DUP2 GT ISZERO PUSH2 0x209 JUMPI PUSH2 0x208 PUSH2 0x9CC JUMP JUMPDEST JUMPDEST SUB PUSH2 0x224 JUMPI PUSH3 0x76A700 DUP3 PUSH1 0x1 ADD SLOAD PUSH2 0x221 SWAP2 SWAP1 PUSH2 0xA2A JUMP JUMPDEST SWAP1 POP JUMPDEST PUSH1 0x2 PUSH1 0x3 DUP2 GT ISZERO PUSH2 0x238 JUMPI PUSH2 0x237 PUSH2 0x9CC JUMP JUMPDEST JUMPDEST DUP3 PUSH1 0x3 ADD PUSH1 0x1 SWAP1 SLOAD SWAP1 PUSH2 0x100 EXP SWAP1 DIV PUSH1 0xFF AND PUSH1 0x3 DUP2 GT ISZERO PUSH2 0x25C JUMPI PUSH2 0x25B PUSH2 0x9CC JUMP JUMPDEST JUMPDEST SUB PUSH2 0x277 JUMPI PUSH3 0x4F1A00 DUP3 PUSH1 0x1 ADD SLOAD PUSH2 0x274 SWAP2 SWAP1 PUSH2 0xA2A JUMP JUMPDEST SWAP1 POP JUMPDEST PUSH1 0x3 DUP1 DUP2 GT ISZERO PUSH2 0x28A JUMPI PUSH2 0x289 PUSH2 0x9CC JUMP JUMPDEST JUMPDEST DUP3 PUSH1 0x3 ADD PUSH1 0x1 SWAP1 SLOAD SWAP1 PUSH2 0x100 EXP SWAP1 DIV PUSH1 0xFF AND PUSH1 0x3 DUP2 GT ISZERO PUSH2 0x2AE JUMPI PUSH2 0x2AD PUSH2 0x9CC JUMP JUMPDEST JUMPDEST SUB PUSH2 0x2CA JUMPI PUSH4 0x1E13380 DUP3 PUSH1 0x1 ADD SLOAD PUSH2 0x2C7 SWAP2 SWAP1 PUSH2 0xA2A JUMP JUMPDEST SWAP1 POP JUMPDEST PUSH1 0x0 PUSH2 0x3A0 DUP4 PUSH1 0x40 MLOAD DUP1 PUSH1 0xA0 ADD PUSH1 0x40 MSTORE SWAP1 DUP2 PUSH1 0x0 DUP3 ADD PUSH1 0x0 SWAP1 SLOAD SWAP1 PUSH2 0x100 EXP SWAP1 DIV PUSH20 0xFFFFFFFFFFFFFFFFFFFFFFFFFFFFFFFFFFFFFFFF AND PUSH20 0xFFFFFFFFFFFFFFFFFFFFFFFFFFFFFFFFFFFFFFFF AND PUSH20 0xFFFFFFFFFFFFFFFFFFFFFFFFFFFFFFFFFFFFFFFF AND DUP2 MSTORE PUSH1 0x20 ADD PUSH1 0x1 DUP3 ADD SLOAD DUP2 MSTORE PUSH1 0x20 ADD PUSH1 0x2 DUP3 ADD SLOAD DUP2 MSTORE PUSH1 0x20 ADD PUSH1 0x3 DUP3 ADD PUSH1 0x0 SWAP1 SLOAD SWAP1 PUSH2 0x100 EXP SWAP1 DIV PUSH1 0xFF AND ISZERO ISZERO ISZERO ISZERO DUP2 MSTORE PUSH1 0x20 ADD PUSH1 0x3 DUP3 ADD PUSH1 0x1 SWAP1 SLOAD SWAP1 PUSH2 0x100 EXP SWAP1 DIV PUSH1 0xFF AND PUSH1 0x3 DUP2 GT ISZERO PUSH2 0x385 JUMPI PUSH2 0x384 PUSH2 0x9CC JUMP JUMPDEST JUMPDEST PUSH1 0x3 DUP2 GT ISZERO PUSH2 0x397 JUMPI PUSH2 0x396 PUSH2 0x9CC JUMP JUMPDEST JUMPDEST DUP2 MSTORE POP POP PUSH2 0x766 JUMP JUMPDEST SWAP1 POP DUP3 PUSH1 0x1 ADD SLOAD TIMESTAMP LT ISZERO PUSH2 0x3E9 JUMPI PUSH1 0x40 MLOAD PUSH32 0x8C379A000000000000000000000000000000000000000000000000000000000 DUP2 MSTORE PUSH1 0x4 ADD PUSH2 0x3E0 SWAP1 PUSH2 0xAD0 JUMP JUMPDEST PUSH1 0x40 MLOAD DUP1 SWAP2 SUB SWAP1 REVERT JUMPDEST PUSH1 0x0 DUP2 DUP5 PUSH1 0x2 ADD SLOAD PUSH2 0x3FB SWAP2 SWAP1 PUSH2 0xA2A JUMP JUMPDEST SWAP1 POP PUSH1 0x0 DUP5 PUSH1 0x2 ADD DUP2 SWAP1 SSTORE POP PUSH1 0x0 DUP5 PUSH1 0x3 ADD PUSH1 0x0 PUSH2 0x100 EXP DUP2 SLOAD DUP2 PUSH1 0xFF MUL NOT AND SWAP1 DUP4 ISZERO ISZERO MUL OR SWAP1 SSTORE POP PUSH1 0x0 CALLER PUSH20 0xFFFFFFFFFFFFFFFFFFFFFFFFFFFFFFFFFFFFFFFF AND DUP3 PUSH1 0x40 MLOAD PUSH2 0x44A SWAP1 PUSH2 0xB21 JUMP JUMPDEST PUSH1 0x0 PUSH1 0x40 MLOAD DUP1 DUP4 SUB DUP2 DUP6 DUP8 GAS CALL SWAP3 POP POP POP RETURNDATASIZE DUP1 PUSH1 0x0 DUP2 EQ PUSH2 0x487 JUMPI PUSH1 0x40 MLOAD SWAP2 POP PUSH1 0x1F NOT PUSH1 0x3F RETURNDATASIZE ADD AND DUP3 ADD PUSH1 0x40 MSTORE RETURNDATASIZE DUP3 MSTORE RETURNDATASIZE PUSH1 0x0 PUSH1 0x20 DUP5 ADD RETURNDATACOPY PUSH2 0x48C JUMP JUMPDEST PUSH1 0x60 SWAP2 POP JUMPDEST POP POP SWAP1 POP DUP1 PUSH2 0x4D0 JUMPI PUSH1 0x40 MLOAD PUSH32 0x8C379A000000000000000000000000000000000000000000000000000000000 DUP2 MSTORE PUSH1 0x4 ADD PUSH2 0x4C7 SWAP1 PUSH2 0xB82 JUMP JUMPDEST PUSH1 0x40 MLOAD DUP1 SWAP2 SUB SWAP1 REVERT JUMPDEST CALLER PUSH20 0xFFFFFFFFFFFFFFFFFFFFFFFFFFFFFFFFFFFFFFFF AND PUSH32 0x39F463C7A2E15D846AA8BE0A40A1DD2FCA9E605085F5FEDCA23FC5FCED447AD8 DUP4 PUSH1 0x40 MLOAD PUSH2 0x516 SWAP2 SWAP1 PUSH2 0x8DD JUMP JUMPDEST PUSH1 0x40 MLOAD DUP1 SWAP2 SUB SWAP1 LOG2 POP POP POP POP POP JUMP JUMPDEST PUSH1 0x0 PUSH1 0x3 DUP2 GT ISZERO PUSH2 0x539 JUMPI PUSH2 0x538 PUSH2 0x9CC JUMP JUMPDEST JUMPDEST DUP2 PUSH1 0x3 DUP2 GT ISZERO PUSH2 0x54C JUMPI PUSH2 0x54B PUSH2 0x9CC JUMP JUMPDEST JUMPDEST EQ DUP1 PUSH2 0x57C JUMPI POP PUSH1 0x2 PUSH1 0x3 DUP2 GT ISZERO PUSH2 0x567 JUMPI PUSH2 0x566 PUSH2 0x9CC JUMP JUMPDEST JUMPDEST DUP2 PUSH1 0x3 DUP2 GT ISZERO PUSH2 0x57A JUMPI PUSH2 0x579 PUSH2 0x9CC JUMP JUMPDEST JUMPDEST EQ JUMPDEST DUP1 PUSH2 0x5AB JUMPI POP PUSH1 0x1 PUSH1 0x3 DUP2 GT ISZERO PUSH2 0x596 JUMPI PUSH2 0x595 PUSH2 0x9CC JUMP JUMPDEST JUMPDEST DUP2 PUSH1 0x3 DUP2 GT ISZERO PUSH2 0x5A9 JUMPI PUSH2 0x5A8 PUSH2 0x9CC JUMP JUMPDEST JUMPDEST EQ JUMPDEST DUP1 PUSH2 0x5D9 JUMPI POP PUSH1 0x3 DUP1 DUP2 GT ISZERO PUSH2 0x5C4 JUMPI PUSH2 0x5C3 PUSH2 0x9CC JUMP JUMPDEST JUMPDEST DUP2 PUSH1 0x3 DUP2 GT ISZERO PUSH2 0x5D7 JUMPI PUSH2 0x5D6 PUSH2 0x9CC JUMP JUMPDEST JUMPDEST EQ JUMPDEST PUSH2 0x618 JUMPI PUSH1 0x40 MLOAD PUSH32 0x8C379A000000000000000000000000000000000000000000000000000000000 DUP2 MSTORE PUSH1 0x4 ADD PUSH2 0x60F SWAP1 PUSH2 0xBEE JUMP JUMPDEST PUSH1 0x40 MLOAD DUP1 SWAP2 SUB SWAP1 REVERT JUMPDEST PUSH1 0x0 PUSH1 0x1 PUSH1 0x0 CALLER PUSH20 0xFFFFFFFFFFFFFFFFFFFFFFFFFFFFFFFFFFFFFFFF AND PUSH20 0xFFFFFFFFFFFFFFFFFFFFFFFFFFFFFFFFFFFFFFFF AND DUP2 MSTORE PUSH1 0x20 ADD SWAP1 DUP2 MSTORE PUSH1 0x20 ADD PUSH1 0x0 KECCAK256 SWAP1 POP PUSH1 0x0 ISZERO ISZERO DUP2 PUSH1 0x3 ADD PUSH1 0x0 SWAP1 SLOAD SWAP1 PUSH2 0x100 EXP SWAP1 DIV PUSH1 0xFF AND ISZERO ISZERO EQ PUSH2 0x6B3 JUMPI PUSH1 0x40 MLOAD PUSH32 0x8C379A000000000000000000000000000000000000000000000000000000000 DUP2 MSTORE PUSH1 0x4 ADD PUSH2 0x6AA SWAP1 PUSH2 0xC5A JUMP JUMPDEST PUSH1 0x40 MLOAD DUP1 SWAP2 SUB SWAP1 REVERT JUMPDEST TIMESTAMP DUP2 PUSH1 0x1 ADD DUP2 SWAP1 SSTORE POP PUSH1 0x1 DUP2 PUSH1 0x3 ADD PUSH1 0x0 PUSH2 0x100 EXP DUP2 SLOAD DUP2 PUSH1 0xFF MUL NOT AND SWAP1 DUP4 ISZERO ISZERO MUL OR SWAP1 SSTORE POP CALLVALUE DUP2 PUSH1 0x2 ADD DUP2 SWAP1 SSTORE POP DUP2 DUP2 PUSH1 0x3 ADD PUSH1 0x1 PUSH2 0x100 EXP DUP2 SLOAD DUP2 PUSH1 0xFF MUL NOT AND SWAP1 DUP4 PUSH1 0x3 DUP2 GT ISZERO PUSH2 0x709 JUMPI PUSH2 0x708 PUSH2 0x9CC JUMP JUMPDEST JUMPDEST MUL OR SWAP1 SSTORE POP CALLER PUSH20 0xFFFFFFFFFFFFFFFFFFFFFFFFFFFFFFFFFFFFFFFF AND PUSH32 0x1D0787AEE899A49EF81D0B11DA9ACA5455B46AEFED042A41BD398D74619CAB00 DUP4 DUP4 PUSH1 0x2 ADD SLOAD PUSH1 0x40 MLOAD PUSH2 0x75A SWAP3 SWAP2 SWAP1 PUSH2 0xCC2 JUMP JUMPDEST PUSH1 0x40 MLOAD DUP1 SWAP2 SUB SWAP1 LOG2 POP POP JUMP JUMPDEST PUSH1 0x0 DUP1 DUP3 PUSH1 0x20 ADD MLOAD TIMESTAMP PUSH2 0x779 SWAP2 SWAP1 PUSH2 0xCEB JUMP JUMPDEST SWAP1 POP PUSH1 0x0 DUP1 PUSH1 0x0 PUSH1 0x3 DUP2 GT ISZERO PUSH2 0x792 JUMPI PUSH2 0x791 PUSH2 0x9CC JUMP JUMPDEST JUMPDEST DUP6 PUSH1 0x80 ADD MLOAD PUSH1 0x3 DUP2 GT ISZERO PUSH2 0x7A9 JUMPI PUSH2 0x7A8 PUSH2 0x9CC JUMP JUMPDEST JUMPDEST SUB PUSH2 0x7B9 JUMPI PUSH1 0x5 SWAP2 POP PUSH3 0x278D00 SWAP1 POP JUMPDEST PUSH1 0x1 PUSH1 0x3 DUP2 GT ISZERO PUSH2 0x7CD JUMPI PUSH2 0x7CC PUSH2 0x9CC JUMP JUMPDEST JUMPDEST DUP6 PUSH1 0x80 ADD MLOAD PUSH1 0x3 DUP2 GT ISZERO PUSH2 0x7E4 JUMPI PUSH2 0x7E3 PUSH2 0x9CC JUMP JUMPDEST JUMPDEST SUB PUSH2 0x800 JUMPI PUSH1 0x2 PUSH1 0x5 PUSH2 0x7F7 SWAP2 SWAP1 PUSH2 0xD1F JUMP JUMPDEST SWAP2 POP PUSH3 0x4F1A00 SWAP1 POP JUMPDEST PUSH1 0x2 PUSH1 0x3 DUP2 GT ISZERO PUSH2 0x814 JUMPI PUSH2 0x813 PUSH2 0x9CC JUMP JUMPDEST JUMPDEST DUP6 PUSH1 0x80 ADD MLOAD PUSH1 0x3 DUP2 GT ISZERO PUSH2 0x82B JUMPI PUSH2 0x82A PUSH2 0x9CC JUMP JUMPDEST JUMPDEST SUB PUSH2 0x847 JUMPI PUSH1 0x3 PUSH1 0x5 PUSH2 0x83E SWAP2 SWAP1 PUSH2 0xD1F JUMP JUMPDEST SWAP2 POP PUSH3 0x76A700 SWAP1 POP JUMPDEST PUSH1 0x3 DUP1 DUP2 GT ISZERO PUSH2 0x85A JUMPI PUSH2 0x859 PUSH2 0x9CC JUMP JUMPDEST JUMPDEST DUP6 PUSH1 0x80 ADD MLOAD PUSH1 0x3 DUP2 GT ISZERO PUSH2 0x871 JUMPI PUSH2 0x870 PUSH2 0x9CC JUMP JUMPDEST JUMPDEST SUB PUSH2 0x882 JUMPI PUSH1 0x3C SWAP2 POP PUSH4 0x1E13380 SWAP1 POP JUMPDEST PUSH1 0x0 PUSH1 0x64 DUP3 PUSH2 0x891 SWAP2 SWAP1 PUSH2 0xD1F JUMP JUMPDEST DUP5 DUP5 DUP9 PUSH1 0x40 ADD MLOAD PUSH2 0x8A2 SWAP2 SWAP1 PUSH2 0xD1F JUMP JUMPDEST PUSH2 0x8AC SWAP2 SWAP1 PUSH2 0xD1F JUMP JUMPDEST PUSH2 0x8B6 SWAP2 SWAP1 PUSH2 0xD90 JUMP JUMPDEST SWAP1 POP DUP1 SWAP5 POP POP POP POP POP SWAP2 SWAP1 POP JUMP JUMPDEST PUSH1 0x0 DUP2 SWAP1 POP SWAP2 SWAP1 POP JUMP JUMPDEST PUSH2 0x8D7 DUP2 PUSH2 0x8C4 JUMP JUMPDEST DUP3 MSTORE POP POP JUMP JUMPDEST PUSH1 0x0 PUSH1 0x20 DUP3 ADD SWAP1 POP PUSH2 0x8F2 PUSH1 0x0 DUP4 ADD DUP5 PUSH2 0x8CE JUMP JUMPDEST SWAP3 SWAP2 POP POP JUMP JUMPDEST PUSH1 0x0 DUP1 REVERT JUMPDEST PUSH1 0x4 DUP2 LT PUSH2 0x90A JUMPI PUSH1 0x0 DUP1 REVERT JUMPDEST POP JUMP JUMPDEST PUSH1 0x0 DUP2 CALLDATALOAD SWAP1 POP PUSH2 0x91C DUP2 PUSH2 0x8FD JUMP JUMPDEST SWAP3 SWAP2 POP POP JUMP JUMPDEST PUSH1 0x0 PUSH1 0x20 DUP3 DUP5 SUB SLT ISZERO PUSH2 0x938 JUMPI PUSH2 0x937 PUSH2 0x8F8 JUMP JUMPDEST JUMPDEST PUSH1 0x0 PUSH2 0x946 DUP5 DUP3 DUP6 ADD PUSH2 0x90D JUMP JUMPDEST SWAP2 POP POP SWAP3 SWAP2 POP POP JUMP JUMPDEST PUSH1 0x0 DUP3 DUP3 MSTORE PUSH1 0x20 DUP3 ADD SWAP1 POP SWAP3 SWAP2 POP POP JUMP JUMPDEST PUSH32 0x596F752068617665206E6F207374616B65000000000000000000000000000000 PUSH1 0x0 DUP3 ADD MSTORE POP JUMP JUMPDEST PUSH1 0x0 PUSH2 0x996 PUSH1 0x11 DUP4 PUSH2 0x94F JUMP JUMPDEST SWAP2 POP PUSH2 0x9A1 DUP3 PUSH2 0x960 JUMP JUMPDEST PUSH1 0x20 DUP3 ADD SWAP1 POP SWAP2 SWAP1 POP JUMP JUMPDEST PUSH1 0x0 PUSH1 0x20 DUP3 ADD SWAP1 POP DUP2 DUP2 SUB PUSH1 0x0 DUP4 ADD MSTORE PUSH2 0x9C5 DUP2 PUSH2 0x989 JUMP JUMPDEST SWAP1 POP SWAP2 SWAP1 POP JUMP JUMPDEST PUSH32 0x4E487B7100000000000000000000000000000000000000000000000000000000 PUSH1 0x0 MSTORE PUSH1 0x21 PUSH1 0x4 MSTORE PUSH1 0x24 PUSH1 0x0 REVERT JUMPDEST PUSH32 0x4E487B7100000000000000000000000000000000000000000000000000000000 PUSH1 0x0 MSTORE PUSH1 0x11 PUSH1 0x4 MSTORE PUSH1 0x24 PUSH1 0x0 REVERT JUMPDEST PUSH1 0x0 PUSH2 0xA35 DUP3 PUSH2 0x8C4 JUMP JUMPDEST SWAP2 POP PUSH2 0xA40 DUP4 PUSH2 0x8C4 JUMP JUMPDEST SWAP3 POP DUP3 DUP3 ADD SWAP1 POP DUP1 DUP3 GT ISZERO PUSH2 0xA58 JUMPI PUSH2 0xA57 PUSH2 0x9FB JUMP JUMPDEST JUMPDEST SWAP3 SWAP2 POP POP JUMP JUMPDEST PUSH32 0x596F752063616E277420776974686472617720796F7572207374616B65207965 PUSH1 0x0 DUP3 ADD MSTORE PUSH32 0x7400000000000000000000000000000000000000000000000000000000000000 PUSH1 0x20 DUP3 ADD MSTORE POP JUMP JUMPDEST PUSH1 0x0 PUSH2 0xABA PUSH1 0x21 DUP4 PUSH2 0x94F JUMP JUMPDEST SWAP2 POP PUSH2 0xAC5 DUP3 PUSH2 0xA5E JUMP JUMPDEST PUSH1 0x40 DUP3 ADD SWAP1 POP SWAP2 SWAP1 POP JUMP JUMPDEST PUSH1 0x0 PUSH1 0x20 DUP3 ADD SWAP1 POP DUP2 DUP2 SUB PUSH1 0x0 DUP4 ADD MSTORE PUSH2 0xAE9 DUP2 PUSH2 0xAAD JUMP JUMPDEST SWAP1 POP SWAP2 SWAP1 POP JUMP JUMPDEST PUSH1 0x0 DUP2 SWAP1 POP SWAP3 SWAP2 POP POP JUMP JUMPDEST POP JUMP JUMPDEST PUSH1 0x0 PUSH2 0xB0B PUSH1 0x0 DUP4 PUSH2 0xAF0 JUMP JUMPDEST SWAP2 POP PUSH2 0xB16 DUP3 PUSH2 0xAFB JUMP JUMPDEST PUSH1 0x0 DUP3 ADD SWAP1 POP SWAP2 SWAP1 POP JUMP JUMPDEST PUSH1 0x0 PUSH2 0xB2C DUP3 PUSH2 0xAFE JUMP JUMPDEST SWAP2 POP DUP2 SWAP1 POP SWAP2 SWAP1 POP JUMP JUMPDEST PUSH32 0x5472616E73616374696F6E204572726F72000000000000000000000000000000 PUSH1 0x0 DUP3 ADD MSTORE POP JUMP JUMPDEST PUSH1 0x0 PUSH2 0xB6C PUSH1 0x11 DUP4 PUSH2 0x94F JUMP JUMPDEST SWAP2 POP PUSH2 0xB77 DUP3 PUSH2 0xB36 JUMP JUMPDEST PUSH1 0x20 DUP3 ADD SWAP1 POP SWAP2 SWAP1 POP JUMP JUMPDEST PUSH1 0x0 PUSH1 0x20 DUP3 ADD SWAP1 POP DUP2 DUP2 SUB PUSH1 0x0 DUP4 ADD MSTORE PUSH2 0xB9B DUP2 PUSH2 0xB5F JUMP JUMPDEST SWAP1 POP SWAP2 SWAP1 POP JUMP JUMPDEST PUSH32 0x456E74657220612076616C6964204475726174696F6E00000000000000000000 PUSH1 0x0 DUP3 ADD MSTORE POP JUMP JUMPDEST PUSH1 0x0 PUSH2 0xBD8 PUSH1 0x16 DUP4 PUSH2 0x94F JUMP JUMPDEST SWAP2 POP PUSH2 0xBE3 DUP3 PUSH2 0xBA2 JUMP JUMPDEST PUSH1 0x20 DUP3 ADD SWAP1 POP SWAP2 SWAP1 POP JUMP JUMPDEST PUSH1 0x0 PUSH1 0x20 DUP3 ADD SWAP1 POP DUP2 DUP2 SUB PUSH1 0x0 DUP4 ADD MSTORE PUSH2 0xC07 DUP2 PUSH2 0xBCB JUMP JUMPDEST SWAP1 POP SWAP2 SWAP1 POP JUMP JUMPDEST PUSH32 0x596F752063616E2774207374616B652074776963650000000000000000000000 PUSH1 0x0 DUP3 ADD MSTORE POP JUMP JUMPDEST PUSH1 0x0 PUSH2 0xC44 PUSH1 0x15 DUP4 PUSH2 0x94F JUMP JUMPDEST SWAP2 POP PUSH2 0xC4F DUP3 PUSH2 0xC0E JUMP JUMPDEST PUSH1 0x20 DUP3 ADD SWAP1 POP SWAP2 SWAP1 POP JUMP JUMPDEST PUSH1 0x0 PUSH1 0x20 DUP3 ADD SWAP1 POP DUP2 DUP2 SUB PUSH1 0x0 DUP4 ADD MSTORE PUSH2 0xC73 DUP2 PUSH2 0xC37 JUMP JUMPDEST SWAP1 POP SWAP2 SWAP1 POP JUMP JUMPDEST PUSH1 0x4 DUP2 LT PUSH2 0xC8B JUMPI PUSH2 0xC8A PUSH2 0x9CC JUMP JUMPDEST JUMPDEST POP JUMP JUMPDEST PUSH1 0x0 DUP2 SWAP1 POP PUSH2 0xC9C DUP3 PUSH2 0xC7A JUMP JUMPDEST SWAP2 SWAP1 POP JUMP JUMPDEST PUSH1 0x0 PUSH2 0xCAC DUP3 PUSH2 0xC8E JUMP JUMPDEST SWAP1 POP SWAP2 SWAP1 POP JUMP JUMPDEST PUSH2 0xCBC DUP2 PUSH2 0xCA1 JUMP JUMPDEST DUP3 MSTORE POP POP JUMP JUMPDEST PUSH1 0x0 PUSH1 0x40 DUP3 ADD SWAP1 POP PUSH2 0xCD7 PUSH1 0x0 DUP4 ADD DUP6 PUSH2 0xCB3 JUMP JUMPDEST PUSH2 0xCE4 PUSH1 0x20 DUP4 ADD DUP5 PUSH2 0x8CE JUMP JUMPDEST SWAP4 SWAP3 POP POP POP JUMP JUMPDEST PUSH1 0x0 PUSH2 0xCF6 DUP3 PUSH2 0x8C4 JUMP JUMPDEST SWAP2 POP PUSH2 0xD01 DUP4 PUSH2 0x8C4 JUMP JUMPDEST SWAP3 POP DUP3 DUP3 SUB SWAP1 POP DUP2 DUP2 GT ISZERO PUSH2 0xD19 JUMPI PUSH2 0xD18 PUSH2 0x9FB JUMP JUMPDEST JUMPDEST SWAP3 SWAP2 POP POP JUMP JUMPDEST PUSH1 0x0 PUSH2 0xD2A DUP3 PUSH2 0x8C4 JUMP JUMPDEST SWAP2 POP PUSH2 0xD35 DUP4 PUSH2 0x8C4 JUMP JUMPDEST SWAP3 POP DUP3 DUP3 MUL PUSH2 0xD43 DUP2 PUSH2 0x8C4 JUMP JUMPDEST SWAP2 POP DUP3 DUP3 DIV DUP5 EQ DUP4 ISZERO OR PUSH2 0xD5A JUMPI PUSH2 0xD59 PUSH2 0x9FB JUMP JUMPDEST JUMPDEST POP SWAP3 SWAP2 POP POP JUMP JUMPDEST PUSH32 0x4E487B7100000000000000000000000000000000000000000000000000000000 PUSH1 0x0 MSTORE PUSH1 0x12 PUSH1 0x4 MSTORE PUSH1 0x24 PUSH1 0x0 REVERT JUMPDEST PUSH1 0x0 PUSH2 0xD9B DUP3 PUSH2 0x8C4 JUMP JUMPDEST SWAP2 POP PUSH2 0xDA6 DUP4 PUSH2 0x8C4 JUMP JUMPDEST SWAP3 POP DUP3 PUSH2 0xDB6 JUMPI PUSH2 0xDB5 PUSH2 0xD61 JUMP JUMPDEST JUMPDEST DUP3 DUP3 DIV SWAP1 POP SWAP3 SWAP2 POP POP JUMP INVALID LOG2 PUSH5 0x6970667358 0x22 SLT KECCAK256 0xB3 SWAP4 0xD2 0xB6 DIV DIV ISZERO LOG3 PUSH17 0xF061639CFE15D70A037189AC53B4219F2F INVALID SIGNEXTEND 0x2D 0xEA BASEFEE 0xC5 PUSH5 0x736F6C6343 STOP ADDMOD XOR STOP CALLER "
        },
        "methodIdentifiers": {
          "MONTHLY_RATE()": "3986ebce",
          "YEARLY()": "c1746443",
          "deposit(uint8)": "ebe41b73",
          "withdrawStaking()": "dcee7fe3"
        }
      }
    }
  }
}