{
  "contracts/StakeToken.sol": {
    "StakeToken": {
      "abi": [
        {
          "inputs": [
            {
              "internalType": "address",
              "name": "_tokenAddress",
              "type": "address"
            }
          ],
          "stateMutability": "nonpayable",
          "type": "constructor"
        },
        {
          "inputs": [],
          "name": "NotOwner",
          "type": "error"
        },
        {
          "anonymous": false,
          "inputs": [
            {
              "indexed": true,
              "internalType": "address",
              "name": "_address",
              "type": "address"
            },
            {
              "indexed": false,
              "internalType": "enum StakeToken.Duration",
              "name": "_duration",
              "type": "uint8"
            },
            {
              "indexed": false,
              "internalType": "uint256",
              "name": "balance",
              "type": "uint256"
            }
          ],
          "name": "Deposited",
          "type": "event"
        },
        {
          "anonymous": false,
          "inputs": [
            {
              "indexed": true,
              "internalType": "address",
              "name": "_address",
              "type": "address"
            },
            {
              "indexed": false,
              "internalType": "uint256",
              "name": "totalReward",
              "type": "uint256"
            }
          ],
          "name": "WithDrawalSucessful",
          "type": "event"
        },
        {
          "inputs": [],
          "name": "MONTHLY_RATE",
          "outputs": [
            {
              "internalType": "uint256",
              "name": "",
              "type": "uint256"
            }
          ],
          "stateMutability": "view",
          "type": "function"
        },
        {
          "inputs": [],
          "name": "YEARLY",
          "outputs": [
            {
              "internalType": "uint256",
              "name": "",
              "type": "uint256"
            }
          ],
          "stateMutability": "view",
          "type": "function"
        },
        {
          "inputs": [
            {
              "internalType": "enum StakeToken.Duration",
              "name": "_duration",
              "type": "uint8"
            },
            {
              "internalType": "uint256",
              "name": "_amount",
              "type": "uint256"
            }
          ],
          "name": "stakeToken",
          "outputs": [],
          "stateMutability": "payable",
          "type": "function"
        },
        {
          "inputs": [],
          "name": "withdrawStaking",
          "outputs": [],
          "stateMutability": "nonpayable",
          "type": "function"
        },
        {
          "stateMutability": "payable",
          "type": "receive"
        }
      ],
      "evm": {
        "bytecode": {
          "linkReferences": {},
          "object": "60806040523480156200001157600080fd5b506040516200126038038062001260833981810160405281019062000037919062000129565b336000806101000a81548173ffffffffffffffffffffffffffffffffffffffff021916908373ffffffffffffffffffffffffffffffffffffffff16021790555080600160006101000a81548173ffffffffffffffffffffffffffffffffffffffff021916908373ffffffffffffffffffffffffffffffffffffffff160217905550506200015b565b600080fd5b600073ffffffffffffffffffffffffffffffffffffffff82169050919050565b6000620000f182620000c4565b9050919050565b6200010381620000e4565b81146200010f57600080fd5b50565b6000815190506200012381620000f8565b92915050565b600060208284031215620001425762000141620000bf565b5b6000620001528482850162000112565b91505092915050565b6110f5806200016b6000396000f3fe6080604052600436106100435760003560e01c80633986ebce1461004f578063c17464431461007a578063d405bd49146100a5578063dcee7fe3146100c15761004a565b3661004a57005b600080fd5b34801561005b57600080fd5b506100646100d8565b6040516100719190610a59565b60405180910390f35b34801561008657600080fd5b5061008f6100dd565b60405161009c9190610a59565b60405180910390f35b6100bf60048036038101906100ba9190610aca565b6100e2565b005b3480156100cd57600080fd5b506100d66104ab565b005b600581565b603c81565b600060038111156100f6576100f5610b0a565b5b82600381111561010957610108610b0a565b5b148061013957506002600381111561012457610123610b0a565b5b82600381111561013757610136610b0a565b5b145b8061016857506001600381111561015357610152610b0a565b5b82600381111561016657610165610b0a565b5b145b80610196575060038081111561018157610180610b0a565b5b82600381111561019457610193610b0a565b5b145b6101d5576040517f08c379a00000000000000000000000000000000000000000000000000000000081526004016101cc90610b96565b60405180910390fd5b6000600160009054906101000a900473ffffffffffffffffffffffffffffffffffffffff1673ffffffffffffffffffffffffffffffffffffffff166370a08231336040518263ffffffff1660e01b81526004016102329190610bf7565b602060405180830381865afa15801561024f573d6000803e3d6000fd5b505050506040513d601f19601f820116820180604052508101906102739190610c27565b9050818110156102b8576040517f08c379a00000000000000000000000000000000000000000000000000000000081526004016102af90610cc6565b60405180910390fd5b6000600260003373ffffffffffffffffffffffffffffffffffffffff1673ffffffffffffffffffffffffffffffffffffffff1681526020019081526020016000209050600015158160030160009054906101000a900460ff16151514610353576040517f08c379a000000000000000000000000000000000000000000000000000000000815260040161034a90610d32565b60405180910390fd5b600160009054906101000a900473ffffffffffffffffffffffffffffffffffffffff1673ffffffffffffffffffffffffffffffffffffffff166323b872dd3330866040518463ffffffff1660e01b81526004016103b293929190610d52565b6020604051808303816000875af11580156103d1573d6000803e3d6000fd5b505050506040513d601f19601f820116820180604052508101906103f59190610dc1565b5042816001018190555060018160030160006101000a81548160ff021916908315150217905550838160030160016101000a81548160ff0219169083600381111561044357610442610b0a565b5b02179055503481600201819055503373ffffffffffffffffffffffffffffffffffffffff167f1d0787aee899a49ef81d0b11da9aca5455b46aefed042a41bd398d74619cab0085836002015460405161049d929190610e36565b60405180910390a250505050565b6000600260003373ffffffffffffffffffffffffffffffffffffffff1673ffffffffffffffffffffffffffffffffffffffff1681526020019081526020016000209050600115158160030160009054906101000a900460ff16151514610546576040517f08c379a000000000000000000000000000000000000000000000000000000000815260040161053d90610eab565b60405180910390fd5b600080600381111561055b5761055a610b0a565b5b8260030160019054906101000a900460ff16600381111561057f5761057e610b0a565b5b0361059a5762278d0082600101546105979190610efa565b90505b600160038111156105ae576105ad610b0a565b5b8260030160019054906101000a900460ff1660038111156105d2576105d1610b0a565b5b036105ed576276a70082600101546105ea9190610efa565b90505b6002600381111561060157610600610b0a565b5b8260030160019054906101000a900460ff16600381111561062557610624610b0a565b5b0361064057624f1a00826001015461063d9190610efa565b90505b60038081111561065357610652610b0a565b5b8260030160019054906101000a900460ff16600381111561067757610676610b0a565b5b03610693576301e1338082600101546106909190610efa565b90505b6000610769836040518060a00160405290816000820160009054906101000a900473ffffffffffffffffffffffffffffffffffffffff1673ffffffffffffffffffffffffffffffffffffffff1673ffffffffffffffffffffffffffffffffffffffff16815260200160018201548152602001600282015481526020016003820160009054906101000a900460ff161515151581526020016003820160019054906101000a900460ff16600381111561074e5761074d610b0a565b5b60038111156107605761075f610b0a565b5b815250506108e2565b905082600101544210156107b2576040517f08c379a00000000000000000000000000000000000000000000000000000000081526004016107a990610fa0565b60405180910390fd5b60008184600201546107c49190610efa565b90506000846002018190555060008460030160006101000a81548160ff021916908315150217905550600160009054906101000a900473ffffffffffffffffffffffffffffffffffffffff1673ffffffffffffffffffffffffffffffffffffffff1663a9059cbb33836040518363ffffffff1660e01b815260040161084a929190610fc0565b6020604051808303816000875af1158015610869573d6000803e3d6000fd5b505050506040513d601f19601f8201168201806040525081019061088d9190610dc1565b503373ffffffffffffffffffffffffffffffffffffffff167f39f463c7a2e15d846aa8be0a40a1dd2fca9e605085f5fedca23fc5fced447ad8826040516108d49190610a59565b60405180910390a250505050565b6000808260200151426108f59190610fe9565b90506000806000600381111561090e5761090d610b0a565b5b8560800151600381111561092557610924610b0a565b5b03610935576005915062278d0090505b6001600381111561094957610948610b0a565b5b856080015160038111156109605761095f610b0a565b5b0361097c5760026005610973919061101d565b9150624f1a0090505b600260038111156109905761098f610b0a565b5b856080015160038111156109a7576109a6610b0a565b5b036109c357600360056109ba919061101d565b91506276a70090505b6003808111156109d6576109d5610b0a565b5b856080015160038111156109ed576109ec610b0a565b5b036109fe57603c91506301e1338090505b6000606482610a0d919061101d565b84848860400151610a1e919061101d565b610a28919061101d565b610a32919061108e565b905080945050505050919050565b6000819050919050565b610a5381610a40565b82525050565b6000602082019050610a6e6000830184610a4a565b92915050565b600080fd5b60048110610a8657600080fd5b50565b600081359050610a9881610a79565b92915050565b610aa781610a40565b8114610ab257600080fd5b50565b600081359050610ac481610a9e565b92915050565b60008060408385031215610ae157610ae0610a74565b5b6000610aef85828601610a89565b9250506020610b0085828601610ab5565b9150509250929050565b7f4e487b7100000000000000000000000000000000000000000000000000000000600052602160045260246000fd5b600082825260208201905092915050565b7f456e74657220612076616c6964204475726174696f6e00000000000000000000600082015250565b6000610b80601683610b39565b9150610b8b82610b4a565b602082019050919050565b60006020820190508181036000830152610baf81610b73565b9050919050565b600073ffffffffffffffffffffffffffffffffffffffff82169050919050565b6000610be182610bb6565b9050919050565b610bf181610bd6565b82525050565b6000602082019050610c0c6000830184610be8565b92915050565b600081519050610c2181610a9e565b92915050565b600060208284031215610c3d57610c3c610a74565b5b6000610c4b84828501610c12565b91505092915050565b7f596f7520646f6e7420686176652073756666696369656e7420546f6b656e207460008201527f6f207374616b6500000000000000000000000000000000000000000000000000602082015250565b6000610cb0602783610b39565b9150610cbb82610c54565b604082019050919050565b60006020820190508181036000830152610cdf81610ca3565b9050919050565b7f596f752063616e2774207374616b652074776963650000000000000000000000600082015250565b6000610d1c601583610b39565b9150610d2782610ce6565b602082019050919050565b60006020820190508181036000830152610d4b81610d0f565b9050919050565b6000606082019050610d676000830186610be8565b610d746020830185610be8565b610d816040830184610a4a565b949350505050565b60008115159050919050565b610d9e81610d89565b8114610da957600080fd5b50565b600081519050610dbb81610d95565b92915050565b600060208284031215610dd757610dd6610a74565b5b6000610de584828501610dac565b91505092915050565b60048110610dff57610dfe610b0a565b5b50565b6000819050610e1082610dee565b919050565b6000610e2082610e02565b9050919050565b610e3081610e15565b82525050565b6000604082019050610e4b6000830185610e27565b610e586020830184610a4a565b9392505050565b7f596f752068617665206e6f207374616b65000000000000000000000000000000600082015250565b6000610e95601183610b39565b9150610ea082610e5f565b602082019050919050565b60006020820190508181036000830152610ec481610e88565b9050919050565b7f4e487b7100000000000000000000000000000000000000000000000000000000600052601160045260246000fd5b6000610f0582610a40565b9150610f1083610a40565b9250828201905080821115610f2857610f27610ecb565b5b92915050565b7f596f752063616e277420776974686472617720796f7572207374616b6520796560008201527f7400000000000000000000000000000000000000000000000000000000000000602082015250565b6000610f8a602183610b39565b9150610f9582610f2e565b604082019050919050565b60006020820190508181036000830152610fb981610f7d565b9050919050565b6000604082019050610fd56000830185610be8565b610fe26020830184610a4a565b9392505050565b6000610ff482610a40565b9150610fff83610a40565b925082820390508181111561101757611016610ecb565b5b92915050565b600061102882610a40565b915061103383610a40565b925082820261104181610a40565b9150828204841483151761105857611057610ecb565b5b5092915050565b7f4e487b7100000000000000000000000000000000000000000000000000000000600052601260045260246000fd5b600061109982610a40565b91506110a483610a40565b9250826110b4576110b361105f565b5b82820490509291505056fea2646970667358221220e8455b1ba146cd785e30346c2cab30d7a423f6c0cb585d793bdec2655c14949564736f6c63430008180033",
          "opcodes": "PUSH1 0x80 PUSH1 0x40 MSTORE CALLVALUE DUP1 ISZERO PUSH3 0x11 JUMPI PUSH1 0x0 DUP1 REVERT JUMPDEST POP PUSH1 0x40 MLOAD PUSH3 0x1260 CODESIZE SUB DUP1 PUSH3 0x1260 DUP4 CODECOPY DUP2 DUP2 ADD PUSH1 0x40 MSTORE DUP2 ADD SWAP1 PUSH3 0x37 SWAP2 SWAP1 PUSH3 0x129 JUMP JUMPDEST CALLER PUSH1 0x0 DUP1 PUSH2 0x100 EXP DUP2 SLOAD DUP2 PUSH20 0xFFFFFFFFFFFFFFFFFFFFFFFFFFFFFFFFFFFFFFFF MUL NOT AND SWAP1 DUP4 PUSH20 0xFFFFFFFFFFFFFFFFFFFFFFFFFFFFFFFFFFFFFFFF AND MUL OR SWAP1 SSTORE POP DUP1 PUSH1 0x1 PUSH1 0x0 PUSH2 0x100 EXP DUP2 SLOAD DUP2 PUSH20 0xFFFFFFFFFFFFFFFFFFFFFFFFFFFFFFFFFFFFFFFF MUL NOT AND SWAP1 DUP4 PUSH20 0xFFFFFFFFFFFFFFFFFFFFFFFFFFFFFFFFFFFFFFFF AND MUL OR SWAP1 SSTORE POP POP PUSH3 0x15B JUMP JUMPDEST PUSH1 0x0 DUP1 REVERT JUMPDEST PUSH1 0x0 PUSH20 0xFFFFFFFFFFFFFFFFFFFFFFFFFFFFFFFFFFFFFFFF DUP3 AND SWAP1 POP SWAP2 SWAP1 POP JUMP JUMPDEST PUSH1 0x0 PUSH3 0xF1 DUP3 PUSH3 0xC4 JUMP JUMPDEST SWAP1 POP SWAP2 SWAP1 POP JUMP JUMPDEST PUSH3 0x103 DUP2 PUSH3 0xE4 JUMP JUMPDEST DUP2 EQ PUSH3 0x10F JUMPI PUSH1 0x0 DUP1 REVERT JUMPDEST POP JUMP JUMPDEST PUSH1 0x0 DUP2 MLOAD SWAP1 POP PUSH3 0x123 DUP2 PUSH3 0xF8 JUMP JUMPDEST SWAP3 SWAP2 POP POP JUMP JUMPDEST PUSH1 0x0 PUSH1 0x20 DUP3 DUP5 SUB SLT ISZERO PUSH3 0x142 JUMPI PUSH3 0x141 PUSH3 0xBF JUMP JUMPDEST JUMPDEST PUSH1 0x0 PUSH3 0x152 DUP5 DUP3 DUP6 ADD PUSH3 0x112 JUMP JUMPDEST SWAP2 POP POP SWAP3 SWAP2 POP POP JUMP JUMPDEST PUSH2 0x10F5 DUP1 PUSH3 0x16B PUSH1 0x0 CODECOPY PUSH1 0x0 RETURN INVALID PUSH1 0x80 PUSH1 0x40 MSTORE PUSH1 0x4 CALLDATASIZE LT PUSH2 0x43 JUMPI PUSH1 0x0 CALLDATALOAD PUSH1 0xE0 SHR DUP1 PUSH4 0x3986EBCE EQ PUSH2 0x4F JUMPI DUP1 PUSH4 0xC1746443 EQ PUSH2 0x7A JUMPI DUP1 PUSH4 0xD405BD49 EQ PUSH2 0xA5 JUMPI DUP1 PUSH4 0xDCEE7FE3 EQ PUSH2 0xC1 JUMPI PUSH2 0x4A JUMP JUMPDEST CALLDATASIZE PUSH2 0x4A JUMPI STOP JUMPDEST PUSH1 0x0 DUP1 REVERT JUMPDEST CALLVALUE DUP1 ISZERO PUSH2 0x5B JUMPI PUSH1 0x0 DUP1 REVERT JUMPDEST POP PUSH2 0x64 PUSH2 0xD8 JUMP JUMPDEST PUSH1 0x40 MLOAD PUSH2 0x71 SWAP2 SWAP1 PUSH2 0xA59 JUMP JUMPDEST PUSH1 0x40 MLOAD DUP1 SWAP2 SUB SWAP1 RETURN JUMPDEST CALLVALUE DUP1 ISZERO PUSH2 0x86 JUMPI PUSH1 0x0 DUP1 REVERT JUMPDEST POP PUSH2 0x8F PUSH2 0xDD JUMP JUMPDEST PUSH1 0x40 MLOAD PUSH2 0x9C SWAP2 SWAP1 PUSH2 0xA59 JUMP JUMPDEST PUSH1 0x40 MLOAD DUP1 SWAP2 SUB SWAP1 RETURN JUMPDEST PUSH2 0xBF PUSH1 0x4 DUP1 CALLDATASIZE SUB DUP2 ADD SWAP1 PUSH2 0xBA SWAP2 SWAP1 PUSH2 0xACA JUMP JUMPDEST PUSH2 0xE2 JUMP JUMPDEST STOP JUMPDEST CALLVALUE DUP1 ISZERO PUSH2 0xCD JUMPI PUSH1 0x0 DUP1 REVERT JUMPDEST POP PUSH2 0xD6 PUSH2 0x4AB JUMP JUMPDEST STOP JUMPDEST PUSH1 0x5 DUP2 JUMP JUMPDEST PUSH1 0x3C DUP2 JUMP JUMPDEST PUSH1 0x0 PUSH1 0x3 DUP2 GT ISZERO PUSH2 0xF6 JUMPI PUSH2 0xF5 PUSH2 0xB0A JUMP JUMPDEST JUMPDEST DUP3 PUSH1 0x3 DUP2 GT ISZERO PUSH2 0x109 JUMPI PUSH2 0x108 PUSH2 0xB0A JUMP JUMPDEST JUMPDEST EQ DUP1 PUSH2 0x139 JUMPI POP PUSH1 0x2 PUSH1 0x3 DUP2 GT ISZERO PUSH2 0x124 JUMPI PUSH2 0x123 PUSH2 0xB0A JUMP JUMPDEST JUMPDEST DUP3 PUSH1 0x3 DUP2 GT ISZERO PUSH2 0x137 JUMPI PUSH2 0x136 PUSH2 0xB0A JUMP JUMPDEST JUMPDEST EQ JUMPDEST DUP1 PUSH2 0x168 JUMPI POP PUSH1 0x1 PUSH1 0x3 DUP2 GT ISZERO PUSH2 0x153 JUMPI PUSH2 0x152 PUSH2 0xB0A JUMP JUMPDEST JUMPDEST DUP3 PUSH1 0x3 DUP2 GT ISZERO PUSH2 0x166 JUMPI PUSH2 0x165 PUSH2 0xB0A JUMP JUMPDEST JUMPDEST EQ JUMPDEST DUP1 PUSH2 0x196 JUMPI POP PUSH1 0x3 DUP1 DUP2 GT ISZERO PUSH2 0x181 JUMPI PUSH2 0x180 PUSH2 0xB0A JUMP JUMPDEST JUMPDEST DUP3 PUSH1 0x3 DUP2 GT ISZERO PUSH2 0x194 JUMPI PUSH2 0x193 PUSH2 0xB0A JUMP JUMPDEST JUMPDEST EQ JUMPDEST PUSH2 0x1D5 JUMPI PUSH1 0x40 MLOAD PUSH32 0x8C379A000000000000000000000000000000000000000000000000000000000 DUP2 MSTORE PUSH1 0x4 ADD PUSH2 0x1CC SWAP1 PUSH2 0xB96 JUMP JUMPDEST PUSH1 0x40 MLOAD DUP1 SWAP2 SUB SWAP1 REVERT JUMPDEST PUSH1 0x0 PUSH1 0x1 PUSH1 0x0 SWAP1 SLOAD SWAP1 PUSH2 0x100 EXP SWAP1 DIV PUSH20 0xFFFFFFFFFFFFFFFFFFFFFFFFFFFFFFFFFFFFFFFF AND PUSH20 0xFFFFFFFFFFFFFFFFFFFFFFFFFFFFFFFFFFFFFFFF AND PUSH4 0x70A08231 CALLER PUSH1 0x40 MLOAD DUP3 PUSH4 0xFFFFFFFF AND PUSH1 0xE0 SHL DUP2 MSTORE PUSH1 0x4 ADD PUSH2 0x232 SWAP2 SWAP1 PUSH2 0xBF7 JUMP JUMPDEST PUSH1 0x20 PUSH1 0x40 MLOAD DUP1 DUP4 SUB DUP2 DUP7 GAS STATICCALL ISZERO DUP1 ISZERO PUSH2 0x24F JUMPI RETURNDATASIZE PUSH1 0x0 DUP1 RETURNDATACOPY RETURNDATASIZE PUSH1 0x0 REVERT JUMPDEST POP POP POP POP PUSH1 0x40 MLOAD RETURNDATASIZE PUSH1 0x1F NOT PUSH1 0x1F DUP3 ADD AND DUP3 ADD DUP1 PUSH1 0x40 MSTORE POP DUP2 ADD SWAP1 PUSH2 0x273 SWAP2 SWAP1 PUSH2 0xC27 JUMP JUMPDEST SWAP1 POP DUP2 DUP2 LT ISZERO PUSH2 0x2B8 JUMPI PUSH1 0x40 MLOAD PUSH32 0x8C379A000000000000000000000000000000000000000000000000000000000 DUP2 MSTORE PUSH1 0x4 ADD PUSH2 0x2AF SWAP1 PUSH2 0xCC6 JUMP JUMPDEST PUSH1 0x40 MLOAD DUP1 SWAP2 SUB SWAP1 REVERT JUMPDEST PUSH1 0x0 PUSH1 0x2 PUSH1 0x0 CALLER PUSH20 0xFFFFFFFFFFFFFFFFFFFFFFFFFFFFFFFFFFFFFFFF AND PUSH20 0xFFFFFFFFFFFFFFFFFFFFFFFFFFFFFFFFFFFFFFFF AND DUP2 MSTORE PUSH1 0x20 ADD SWAP1 DUP2 MSTORE PUSH1 0x20 ADD PUSH1 0x0 KECCAK256 SWAP1 POP PUSH1 0x0 ISZERO ISZERO DUP2 PUSH1 0x3 ADD PUSH1 0x0 SWAP1 SLOAD SWAP1 PUSH2 0x100 EXP SWAP1 DIV PUSH1 0xFF AND ISZERO ISZERO EQ PUSH2 0x353 JUMPI PUSH1 0x40 MLOAD PUSH32 0x8C379A000000000000000000000000000000000000000000000000000000000 DUP2 MSTORE PUSH1 0x4 ADD PUSH2 0x34A SWAP1 PUSH2 0xD32 JUMP JUMPDEST PUSH1 0x40 MLOAD DUP1 SWAP2 SUB SWAP1 REVERT JUMPDEST PUSH1 0x1 PUSH1 0x0 SWAP1 SLOAD SWAP1 PUSH2 0x100 EXP SWAP1 DIV PUSH20 0xFFFFFFFFFFFFFFFFFFFFFFFFFFFFFFFFFFFFFFFF AND PUSH20 0xFFFFFFFFFFFFFFFFFFFFFFFFFFFFFFFFFFFFFFFF AND PUSH4 0x23B872DD CALLER ADDRESS DUP7 PUSH1 0x40 MLOAD DUP5 PUSH4 0xFFFFFFFF AND PUSH1 0xE0 SHL DUP2 MSTORE PUSH1 0x4 ADD PUSH2 0x3B2 SWAP4 SWAP3 SWAP2 SWAP1 PUSH2 0xD52 JUMP JUMPDEST PUSH1 0x20 PUSH1 0x40 MLOAD DUP1 DUP4 SUB DUP2 PUSH1 0x0 DUP8 GAS CALL ISZERO DUP1 ISZERO PUSH2 0x3D1 JUMPI RETURNDATASIZE PUSH1 0x0 DUP1 RETURNDATACOPY RETURNDATASIZE PUSH1 0x0 REVERT JUMPDEST POP POP POP POP PUSH1 0x40 MLOAD RETURNDATASIZE PUSH1 0x1F NOT PUSH1 0x1F DUP3 ADD AND DUP3 ADD DUP1 PUSH1 0x40 MSTORE POP DUP2 ADD SWAP1 PUSH2 0x3F5 SWAP2 SWAP1 PUSH2 0xDC1 JUMP JUMPDEST POP TIMESTAMP DUP2 PUSH1 0x1 ADD DUP2 SWAP1 SSTORE POP PUSH1 0x1 DUP2 PUSH1 0x3 ADD PUSH1 0x0 PUSH2 0x100 EXP DUP2 SLOAD DUP2 PUSH1 0xFF MUL NOT AND SWAP1 DUP4 ISZERO ISZERO MUL OR SWAP1 SSTORE POP DUP4 DUP2 PUSH1 0x3 ADD PUSH1 0x1 PUSH2 0x100 EXP DUP2 SLOAD DUP2 PUSH1 0xFF MUL NOT AND SWAP1 DUP4 PUSH1 0x3 DUP2 GT ISZERO PUSH2 0x443 JUMPI PUSH2 0x442 PUSH2 0xB0A JUMP JUMPDEST JUMPDEST MUL OR SWAP1 SSTORE POP CALLVALUE DUP2 PUSH1 0x2 ADD DUP2 SWAP1 SSTORE POP CALLER PUSH20 0xFFFFFFFFFFFFFFFFFFFFFFFFFFFFFFFFFFFFFFFF AND PUSH32 0x1D0787AEE899A49EF81D0B11DA9ACA5455B46AEFED042A41BD398D74619CAB00 DUP6 DUP4 PUSH1 0x2 ADD SLOAD PUSH1 0x40 MLOAD PUSH2 0x49D SWAP3 SWAP2 SWAP1 PUSH2 0xE36 JUMP JUMPDEST PUSH1 0x40 MLOAD DUP1 SWAP2 SUB SWAP1 LOG2 POP POP POP POP JUMP JUMPDEST PUSH1 0x0 PUSH1 0x2 PUSH1 0x0 CALLER PUSH20 0xFFFFFFFFFFFFFFFFFFFFFFFFFFFFFFFFFFFFFFFF AND PUSH20 0xFFFFFFFFFFFFFFFFFFFFFFFFFFFFFFFFFFFFFFFF AND DUP2 MSTORE PUSH1 0x20 ADD SWAP1 DUP2 MSTORE PUSH1 0x20 ADD PUSH1 0x0 KECCAK256 SWAP1 POP PUSH1 0x1 ISZERO ISZERO DUP2 PUSH1 0x3 ADD PUSH1 0x0 SWAP1 SLOAD SWAP1 PUSH2 0x100 EXP SWAP1 DIV PUSH1 0xFF AND ISZERO ISZERO EQ PUSH2 0x546 JUMPI PUSH1 0x40 MLOAD PUSH32 0x8C379A000000000000000000000000000000000000000000000000000000000 DUP2 MSTORE PUSH1 0x4 ADD PUSH2 0x53D SWAP1 PUSH2 0xEAB JUMP JUMPDEST PUSH1 0x40 MLOAD DUP1 SWAP2 SUB SWAP1 REVERT JUMPDEST PUSH1 0x0 DUP1 PUSH1 0x3 DUP2 GT ISZERO PUSH2 0x55B JUMPI PUSH2 0x55A PUSH2 0xB0A JUMP JUMPDEST JUMPDEST DUP3 PUSH1 0x3 ADD PUSH1 0x1 SWAP1 SLOAD SWAP1 PUSH2 0x100 EXP SWAP1 DIV PUSH1 0xFF AND PUSH1 0x3 DUP2 GT ISZERO PUSH2 0x57F JUMPI PUSH2 0x57E PUSH2 0xB0A JUMP JUMPDEST JUMPDEST SUB PUSH2 0x59A JUMPI PUSH3 0x278D00 DUP3 PUSH1 0x1 ADD SLOAD PUSH2 0x597 SWAP2 SWAP1 PUSH2 0xEFA JUMP JUMPDEST SWAP1 POP JUMPDEST PUSH1 0x1 PUSH1 0x3 DUP2 GT ISZERO PUSH2 0x5AE JUMPI PUSH2 0x5AD PUSH2 0xB0A JUMP JUMPDEST JUMPDEST DUP3 PUSH1 0x3 ADD PUSH1 0x1 SWAP1 SLOAD SWAP1 PUSH2 0x100 EXP SWAP1 DIV PUSH1 0xFF AND PUSH1 0x3 DUP2 GT ISZERO PUSH2 0x5D2 JUMPI PUSH2 0x5D1 PUSH2 0xB0A JUMP JUMPDEST JUMPDEST SUB PUSH2 0x5ED JUMPI PUSH3 0x76A700 DUP3 PUSH1 0x1 ADD SLOAD PUSH2 0x5EA SWAP2 SWAP1 PUSH2 0xEFA JUMP JUMPDEST SWAP1 POP JUMPDEST PUSH1 0x2 PUSH1 0x3 DUP2 GT ISZERO PUSH2 0x601 JUMPI PUSH2 0x600 PUSH2 0xB0A JUMP JUMPDEST JUMPDEST DUP3 PUSH1 0x3 ADD PUSH1 0x1 SWAP1 SLOAD SWAP1 PUSH2 0x100 EXP SWAP1 DIV PUSH1 0xFF AND PUSH1 0x3 DUP2 GT ISZERO PUSH2 0x625 JUMPI PUSH2 0x624 PUSH2 0xB0A JUMP JUMPDEST JUMPDEST SUB PUSH2 0x640 JUMPI PUSH3 0x4F1A00 DUP3 PUSH1 0x1 ADD SLOAD PUSH2 0x63D SWAP2 SWAP1 PUSH2 0xEFA JUMP JUMPDEST SWAP1 POP JUMPDEST PUSH1 0x3 DUP1 DUP2 GT ISZERO PUSH2 0x653 JUMPI PUSH2 0x652 PUSH2 0xB0A JUMP JUMPDEST JUMPDEST DUP3 PUSH1 0x3 ADD PUSH1 0x1 SWAP1 SLOAD SWAP1 PUSH2 0x100 EXP SWAP1 DIV PUSH1 0xFF AND PUSH1 0x3 DUP2 GT ISZERO PUSH2 0x677 JUMPI PUSH2 0x676 PUSH2 0xB0A JUMP JUMPDEST JUMPDEST SUB PUSH2 0x693 JUMPI PUSH4 0x1E13380 DUP3 PUSH1 0x1 ADD SLOAD PUSH2 0x690 SWAP2 SWAP1 PUSH2 0xEFA JUMP JUMPDEST SWAP1 POP JUMPDEST PUSH1 0x0 PUSH2 0x769 DUP4 PUSH1 0x40 MLOAD DUP1 PUSH1 0xA0 ADD PUSH1 0x40 MSTORE SWAP1 DUP2 PUSH1 0x0 DUP3 ADD PUSH1 0x0 SWAP1 SLOAD SWAP1 PUSH2 0x100 EXP SWAP1 DIV PUSH20 0xFFFFFFFFFFFFFFFFFFFFFFFFFFFFFFFFFFFFFFFF AND PUSH20 0xFFFFFFFFFFFFFFFFFFFFFFFFFFFFFFFFFFFFFFFF AND PUSH20 0xFFFFFFFFFFFFFFFFFFFFFFFFFFFFFFFFFFFFFFFF AND DUP2 MSTORE PUSH1 0x20 ADD PUSH1 0x1 DUP3 ADD SLOAD DUP2 MSTORE PUSH1 0x20 ADD PUSH1 0x2 DUP3 ADD SLOAD DUP2 MSTORE PUSH1 0x20 ADD PUSH1 0x3 DUP3 ADD PUSH1 0x0 SWAP1 SLOAD SWAP1 PUSH2 0x100 EXP SWAP1 DIV PUSH1 0xFF AND ISZERO ISZERO ISZERO ISZERO DUP2 MSTORE PUSH1 0x20 ADD PUSH1 0x3 DUP3 ADD PUSH1 0x1 SWAP1 SLOAD SWAP1 PUSH2 0x100 EXP SWAP1 DIV PUSH1 0xFF AND PUSH1 0x3 DUP2 GT ISZERO PUSH2 0x74E JUMPI PUSH2 0x74D PUSH2 0xB0A JUMP JUMPDEST JUMPDEST PUSH1 0x3 DUP2 GT ISZERO PUSH2 0x760 JUMPI PUSH2 0x75F PUSH2 0xB0A JUMP JUMPDEST JUMPDEST DUP2 MSTORE POP POP PUSH2 0x8E2 JUMP JUMPDEST SWAP1 POP DUP3 PUSH1 0x1 ADD SLOAD TIMESTAMP LT ISZERO PUSH2 0x7B2 JUMPI PUSH1 0x40 MLOAD PUSH32 0x8C379A000000000000000000000000000000000000000000000000000000000 DUP2 MSTORE PUSH1 0x4 ADD PUSH2 0x7A9 SWAP1 PUSH2 0xFA0 JUMP JUMPDEST PUSH1 0x40 MLOAD DUP1 SWAP2 SUB SWAP1 REVERT JUMPDEST PUSH1 0x0 DUP2 DUP5 PUSH1 0x2 ADD SLOAD PUSH2 0x7C4 SWAP2 SWAP1 PUSH2 0xEFA JUMP JUMPDEST SWAP1 POP PUSH1 0x0 DUP5 PUSH1 0x2 ADD DUP2 SWAP1 SSTORE POP PUSH1 0x0 DUP5 PUSH1 0x3 ADD PUSH1 0x0 PUSH2 0x100 EXP DUP2 SLOAD DUP2 PUSH1 0xFF MUL NOT AND SWAP1 DUP4 ISZERO ISZERO MUL OR SWAP1 SSTORE POP PUSH1 0x1 PUSH1 0x0 SWAP1 SLOAD SWAP1 PUSH2 0x100 EXP SWAP1 DIV PUSH20 0xFFFFFFFFFFFFFFFFFFFFFFFFFFFFFFFFFFFFFFFF AND PUSH20 0xFFFFFFFFFFFFFFFFFFFFFFFFFFFFFFFFFFFFFFFF AND PUSH4 0xA9059CBB CALLER DUP4 PUSH1 0x40 MLOAD DUP4 PUSH4 0xFFFFFFFF AND PUSH1 0xE0 SHL DUP2 MSTORE PUSH1 0x4 ADD PUSH2 0x84A SWAP3 SWAP2 SWAP1 PUSH2 0xFC0 JUMP JUMPDEST PUSH1 0x20 PUSH1 0x40 MLOAD DUP1 DUP4 SUB DUP2 PUSH1 0x0 DUP8 GAS CALL ISZERO DUP1 ISZERO PUSH2 0x869 JUMPI RETURNDATASIZE PUSH1 0x0 DUP1 RETURNDATACOPY RETURNDATASIZE PUSH1 0x0 REVERT JUMPDEST POP POP POP POP PUSH1 0x40 MLOAD RETURNDATASIZE PUSH1 0x1F NOT PUSH1 0x1F DUP3 ADD AND DUP3 ADD DUP1 PUSH1 0x40 MSTORE POP DUP2 ADD SWAP1 PUSH2 0x88D SWAP2 SWAP1 PUSH2 0xDC1 JUMP JUMPDEST POP CALLER PUSH20 0xFFFFFFFFFFFFFFFFFFFFFFFFFFFFFFFFFFFFFFFF AND PUSH32 0x39F463C7A2E15D846AA8BE0A40A1DD2FCA9E605085F5FEDCA23FC5FCED447AD8 DUP3 PUSH1 0x40 MLOAD PUSH2 0x8D4 SWAP2 SWAP1 PUSH2 0xA59 JUMP JUMPDEST PUSH1 0x40 MLOAD DUP1 SWAP2 SUB SWAP1 LOG2 POP POP POP POP JUMP JUMPDEST PUSH1 0x0 DUP1 DUP3 PUSH1 0x20 ADD MLOAD TIMESTAMP PUSH2 0x8F5 SWAP2 SWAP1 PUSH2 0xFE9 JUMP JUMPDEST SWAP1 POP PUSH1 0x0 DUP1 PUSH1 0x0 PUSH1 0x3 DUP2 GT ISZERO PUSH2 0x90E JUMPI PUSH2 0x90D PUSH2 0xB0A JUMP JUMPDEST JUMPDEST DUP6 PUSH1 0x80 ADD MLOAD PUSH1 0x3 DUP2 GT ISZERO PUSH2 0x925 JUMPI PUSH2 0x924 PUSH2 0xB0A JUMP JUMPDEST JUMPDEST SUB PUSH2 0x935 JUMPI PUSH1 0x5 SWAP2 POP PUSH3 0x278D00 SWAP1 POP JUMPDEST PUSH1 0x1 PUSH1 0x3 DUP2 GT ISZERO PUSH2 0x949 JUMPI PUSH2 0x948 PUSH2 0xB0A JUMP JUMPDEST JUMPDEST DUP6 PUSH1 0x80 ADD MLOAD PUSH1 0x3 DUP2 GT ISZERO PUSH2 0x960 JUMPI PUSH2 0x95F PUSH2 0xB0A JUMP JUMPDEST JUMPDEST SUB PUSH2 0x97C JUMPI PUSH1 0x2 PUSH1 0x5 PUSH2 0x973 SWAP2 SWAP1 PUSH2 0x101D JUMP JUMPDEST SWAP2 POP PUSH3 0x4F1A00 SWAP1 POP JUMPDEST PUSH1 0x2 PUSH1 0x3 DUP2 GT ISZERO PUSH2 0x990 JUMPI PUSH2 0x98F PUSH2 0xB0A JUMP JUMPDEST JUMPDEST DUP6 PUSH1 0x80 ADD MLOAD PUSH1 0x3 DUP2 GT ISZERO PUSH2 0x9A7 JUMPI PUSH2 0x9A6 PUSH2 0xB0A JUMP JUMPDEST JUMPDEST SUB PUSH2 0x9C3 JUMPI PUSH1 0x3 PUSH1 0x5 PUSH2 0x9BA SWAP2 SWAP1 PUSH2 0x101D JUMP JUMPDEST SWAP2 POP PUSH3 0x76A700 SWAP1 POP JUMPDEST PUSH1 0x3 DUP1 DUP2 GT ISZERO PUSH2 0x9D6 JUMPI PUSH2 0x9D5 PUSH2 0xB0A JUMP JUMPDEST JUMPDEST DUP6 PUSH1 0x80 ADD MLOAD PUSH1 0x3 DUP2 GT ISZERO PUSH2 0x9ED JUMPI PUSH2 0x9EC PUSH2 0xB0A JUMP JUMPDEST JUMPDEST SUB PUSH2 0x9FE JUMPI PUSH1 0x3C SWAP2 POP PUSH4 0x1E13380 SWAP1 POP JUMPDEST PUSH1 0x0 PUSH1 0x64 DUP3 PUSH2 0xA0D SWAP2 SWAP1 PUSH2 0x101D JUMP JUMPDEST DUP5 DUP5 DUP9 PUSH1 0x40 ADD MLOAD PUSH2 0xA1E SWAP2 SWAP1 PUSH2 0x101D JUMP JUMPDEST PUSH2 0xA28 SWAP2 SWAP1 PUSH2 0x101D JUMP JUMPDEST PUSH2 0xA32 SWAP2 SWAP1 PUSH2 0x108E JUMP JUMPDEST SWAP1 POP DUP1 SWAP5 POP POP POP POP POP SWAP2 SWAP1 POP JUMP JUMPDEST PUSH1 0x0 DUP2 SWAP1 POP SWAP2 SWAP1 POP JUMP JUMPDEST PUSH2 0xA53 DUP2 PUSH2 0xA40 JUMP JUMPDEST DUP3 MSTORE POP POP JUMP JUMPDEST PUSH1 0x0 PUSH1 0x20 DUP3 ADD SWAP1 POP PUSH2 0xA6E PUSH1 0x0 DUP4 ADD DUP5 PUSH2 0xA4A JUMP JUMPDEST SWAP3 SWAP2 POP POP JUMP JUMPDEST PUSH1 0x0 DUP1 REVERT JUMPDEST PUSH1 0x4 DUP2 LT PUSH2 0xA86 JUMPI PUSH1 0x0 DUP1 REVERT JUMPDEST POP JUMP JUMPDEST PUSH1 0x0 DUP2 CALLDATALOAD SWAP1 POP PUSH2 0xA98 DUP2 PUSH2 0xA79 JUMP JUMPDEST SWAP3 SWAP2 POP POP JUMP JUMPDEST PUSH2 0xAA7 DUP2 PUSH2 0xA40 JUMP JUMPDEST DUP2 EQ PUSH2 0xAB2 JUMPI PUSH1 0x0 DUP1 REVERT JUMPDEST POP JUMP JUMPDEST PUSH1 0x0 DUP2 CALLDATALOAD SWAP1 POP PUSH2 0xAC4 DUP2 PUSH2 0xA9E JUMP JUMPDEST SWAP3 SWAP2 POP POP JUMP JUMPDEST PUSH1 0x0 DUP1 PUSH1 0x40 DUP4 DUP6 SUB SLT ISZERO PUSH2 0xAE1 JUMPI PUSH2 0xAE0 PUSH2 0xA74 JUMP JUMPDEST JUMPDEST PUSH1 0x0 PUSH2 0xAEF DUP6 DUP3 DUP7 ADD PUSH2 0xA89 JUMP JUMPDEST SWAP3 POP POP PUSH1 0x20 PUSH2 0xB00 DUP6 DUP3 DUP7 ADD PUSH2 0xAB5 JUMP JUMPDEST SWAP2 POP POP SWAP3 POP SWAP3 SWAP1 POP JUMP JUMPDEST PUSH32 0x4E487B7100000000000000000000000000000000000000000000000000000000 PUSH1 0x0 MSTORE PUSH1 0x21 PUSH1 0x4 MSTORE PUSH1 0x24 PUSH1 0x0 REVERT JUMPDEST PUSH1 0x0 DUP3 DUP3 MSTORE PUSH1 0x20 DUP3 ADD SWAP1 POP SWAP3 SWAP2 POP POP JUMP JUMPDEST PUSH32 0x456E74657220612076616C6964204475726174696F6E00000000000000000000 PUSH1 0x0 DUP3 ADD MSTORE POP JUMP JUMPDEST PUSH1 0x0 PUSH2 0xB80 PUSH1 0x16 DUP4 PUSH2 0xB39 JUMP JUMPDEST SWAP2 POP PUSH2 0xB8B DUP3 PUSH2 0xB4A JUMP JUMPDEST PUSH1 0x20 DUP3 ADD SWAP1 POP SWAP2 SWAP1 POP JUMP JUMPDEST PUSH1 0x0 PUSH1 0x20 DUP3 ADD SWAP1 POP DUP2 DUP2 SUB PUSH1 0x0 DUP4 ADD MSTORE PUSH2 0xBAF DUP2 PUSH2 0xB73 JUMP JUMPDEST SWAP1 POP SWAP2 SWAP1 POP JUMP JUMPDEST PUSH1 0x0 PUSH20 0xFFFFFFFFFFFFFFFFFFFFFFFFFFFFFFFFFFFFFFFF DUP3 AND SWAP1 POP SWAP2 SWAP1 POP JUMP JUMPDEST PUSH1 0x0 PUSH2 0xBE1 DUP3 PUSH2 0xBB6 JUMP JUMPDEST SWAP1 POP SWAP2 SWAP1 POP JUMP JUMPDEST PUSH2 0xBF1 DUP2 PUSH2 0xBD6 JUMP JUMPDEST DUP3 MSTORE POP POP JUMP JUMPDEST PUSH1 0x0 PUSH1 0x20 DUP3 ADD SWAP1 POP PUSH2 0xC0C PUSH1 0x0 DUP4 ADD DUP5 PUSH2 0xBE8 JUMP JUMPDEST SWAP3 SWAP2 POP POP JUMP JUMPDEST PUSH1 0x0 DUP2 MLOAD SWAP1 POP PUSH2 0xC21 DUP2 PUSH2 0xA9E JUMP JUMPDEST SWAP3 SWAP2 POP POP JUMP JUMPDEST PUSH1 0x0 PUSH1 0x20 DUP3 DUP5 SUB SLT ISZERO PUSH2 0xC3D JUMPI PUSH2 0xC3C PUSH2 0xA74 JUMP JUMPDEST JUMPDEST PUSH1 0x0 PUSH2 0xC4B DUP5 DUP3 DUP6 ADD PUSH2 0xC12 JUMP JUMPDEST SWAP2 POP POP SWAP3 SWAP2 POP POP JUMP JUMPDEST PUSH32 0x596F7520646F6E7420686176652073756666696369656E7420546F6B656E2074 PUSH1 0x0 DUP3 ADD MSTORE PUSH32 0x6F207374616B6500000000000000000000000000000000000000000000000000 PUSH1 0x20 DUP3 ADD MSTORE POP JUMP JUMPDEST PUSH1 0x0 PUSH2 0xCB0 PUSH1 0x27 DUP4 PUSH2 0xB39 JUMP JUMPDEST SWAP2 POP PUSH2 0xCBB DUP3 PUSH2 0xC54 JUMP JUMPDEST PUSH1 0x40 DUP3 ADD SWAP1 POP SWAP2 SWAP1 POP JUMP JUMPDEST PUSH1 0x0 PUSH1 0x20 DUP3 ADD SWAP1 POP DUP2 DUP2 SUB PUSH1 0x0 DUP4 ADD MSTORE PUSH2 0xCDF DUP2 PUSH2 0xCA3 JUMP JUMPDEST SWAP1 POP SWAP2 SWAP1 POP JUMP JUMPDEST PUSH32 0x596F752063616E2774207374616B652074776963650000000000000000000000 PUSH1 0x0 DUP3 ADD MSTORE POP JUMP JUMPDEST PUSH1 0x0 PUSH2 0xD1C PUSH1 0x15 DUP4 PUSH2 0xB39 JUMP JUMPDEST SWAP2 POP PUSH2 0xD27 DUP3 PUSH2 0xCE6 JUMP JUMPDEST PUSH1 0x20 DUP3 ADD SWAP1 POP SWAP2 SWAP1 POP JUMP JUMPDEST PUSH1 0x0 PUSH1 0x20 DUP3 ADD SWAP1 POP DUP2 DUP2 SUB PUSH1 0x0 DUP4 ADD MSTORE PUSH2 0xD4B DUP2 PUSH2 0xD0F JUMP JUMPDEST SWAP1 POP SWAP2 SWAP1 POP JUMP JUMPDEST PUSH1 0x0 PUSH1 0x60 DUP3 ADD SWAP1 POP PUSH2 0xD67 PUSH1 0x0 DUP4 ADD DUP7 PUSH2 0xBE8 JUMP JUMPDEST PUSH2 0xD74 PUSH1 0x20 DUP4 ADD DUP6 PUSH2 0xBE8 JUMP JUMPDEST PUSH2 0xD81 PUSH1 0x40 DUP4 ADD DUP5 PUSH2 0xA4A JUMP JUMPDEST SWAP5 SWAP4 POP POP POP POP JUMP JUMPDEST PUSH1 0x0 DUP2 ISZERO ISZERO SWAP1 POP SWAP2 SWAP1 POP JUMP JUMPDEST PUSH2 0xD9E DUP2 PUSH2 0xD89 JUMP JUMPDEST DUP2 EQ PUSH2 0xDA9 JUMPI PUSH1 0x0 DUP1 REVERT JUMPDEST POP JUMP JUMPDEST PUSH1 0x0 DUP2 MLOAD SWAP1 POP PUSH2 0xDBB DUP2 PUSH2 0xD95 JUMP JUMPDEST SWAP3 SWAP2 POP POP JUMP JUMPDEST PUSH1 0x0 PUSH1 0x20 DUP3 DUP5 SUB SLT ISZERO PUSH2 0xDD7 JUMPI PUSH2 0xDD6 PUSH2 0xA74 JUMP JUMPDEST JUMPDEST PUSH1 0x0 PUSH2 0xDE5 DUP5 DUP3 DUP6 ADD PUSH2 0xDAC JUMP JUMPDEST SWAP2 POP POP SWAP3 SWAP2 POP POP JUMP JUMPDEST PUSH1 0x4 DUP2 LT PUSH2 0xDFF JUMPI PUSH2 0xDFE PUSH2 0xB0A JUMP JUMPDEST JUMPDEST POP JUMP JUMPDEST PUSH1 0x0 DUP2 SWAP1 POP PUSH2 0xE10 DUP3 PUSH2 0xDEE JUMP JUMPDEST SWAP2 SWAP1 POP JUMP JUMPDEST PUSH1 0x0 PUSH2 0xE20 DUP3 PUSH2 0xE02 JUMP JUMPDEST SWAP1 POP SWAP2 SWAP1 POP JUMP JUMPDEST PUSH2 0xE30 DUP2 PUSH2 0xE15 JUMP JUMPDEST DUP3 MSTORE POP POP JUMP JUMPDEST PUSH1 0x0 PUSH1 0x40 DUP3 ADD SWAP1 POP PUSH2 0xE4B PUSH1 0x0 DUP4 ADD DUP6 PUSH2 0xE27 JUMP JUMPDEST PUSH2 0xE58 PUSH1 0x20 DUP4 ADD DUP5 PUSH2 0xA4A JUMP JUMPDEST SWAP4 SWAP3 POP POP POP JUMP JUMPDEST PUSH32 0x596F752068617665206E6F207374616B65000000000000000000000000000000 PUSH1 0x0 DUP3 ADD MSTORE POP JUMP JUMPDEST PUSH1 0x0 PUSH2 0xE95 PUSH1 0x11 DUP4 PUSH2 0xB39 JUMP JUMPDEST SWAP2 POP PUSH2 0xEA0 DUP3 PUSH2 0xE5F JUMP JUMPDEST PUSH1 0x20 DUP3 ADD SWAP1 POP SWAP2 SWAP1 POP JUMP JUMPDEST PUSH1 0x0 PUSH1 0x20 DUP3 ADD SWAP1 POP DUP2 DUP2 SUB PUSH1 0x0 DUP4 ADD MSTORE PUSH2 0xEC4 DUP2 PUSH2 0xE88 JUMP JUMPDEST SWAP1 POP SWAP2 SWAP1 POP JUMP JUMPDEST PUSH32 0x4E487B7100000000000000000000000000000000000000000000000000000000 PUSH1 0x0 MSTORE PUSH1 0x11 PUSH1 0x4 MSTORE PUSH1 0x24 PUSH1 0x0 REVERT JUMPDEST PUSH1 0x0 PUSH2 0xF05 DUP3 PUSH2 0xA40 JUMP JUMPDEST SWAP2 POP PUSH2 0xF10 DUP4 PUSH2 0xA40 JUMP JUMPDEST SWAP3 POP DUP3 DUP3 ADD SWAP1 POP DUP1 DUP3 GT ISZERO PUSH2 0xF28 JUMPI PUSH2 0xF27 PUSH2 0xECB JUMP JUMPDEST JUMPDEST SWAP3 SWAP2 POP POP JUMP JUMPDEST PUSH32 0x596F752063616E277420776974686472617720796F7572207374616B65207965 PUSH1 0x0 DUP3 ADD MSTORE PUSH32 0x7400000000000000000000000000000000000000000000000000000000000000 PUSH1 0x20 DUP3 ADD MSTORE POP JUMP JUMPDEST PUSH1 0x0 PUSH2 0xF8A PUSH1 0x21 DUP4 PUSH2 0xB39 JUMP JUMPDEST SWAP2 POP PUSH2 0xF95 DUP3 PUSH2 0xF2E JUMP JUMPDEST PUSH1 0x40 DUP3 ADD SWAP1 POP SWAP2 SWAP1 POP JUMP JUMPDEST PUSH1 0x0 PUSH1 0x20 DUP3 ADD SWAP1 POP DUP2 DUP2 SUB PUSH1 0x0 DUP4 ADD MSTORE PUSH2 0xFB9 DUP2 PUSH2 0xF7D JUMP JUMPDEST SWAP1 POP SWAP2 SWAP1 POP JUMP JUMPDEST PUSH1 0x0 PUSH1 0x40 DUP3 ADD SWAP1 POP PUSH2 0xFD5 PUSH1 0x0 DUP4 ADD DUP6 PUSH2 0xBE8 JUMP JUMPDEST PUSH2 0xFE2 PUSH1 0x20 DUP4 ADD DUP5 PUSH2 0xA4A JUMP JUMPDEST SWAP4 SWAP3 POP POP POP JUMP JUMPDEST PUSH1 0x0 PUSH2 0xFF4 DUP3 PUSH2 0xA40 JUMP JUMPDEST SWAP2 POP PUSH2 0xFFF DUP4 PUSH2 0xA40 JUMP JUMPDEST SWAP3 POP DUP3 DUP3 SUB SWAP1 POP DUP2 DUP2 GT ISZERO PUSH2 0x1017 JUMPI PUSH2 0x1016 PUSH2 0xECB JUMP JUMPDEST JUMPDEST SWAP3 SWAP2 POP POP JUMP JUMPDEST PUSH1 0x0 PUSH2 0x1028 DUP3 PUSH2 0xA40 JUMP JUMPDEST SWAP2 POP PUSH2 0x1033 DUP4 PUSH2 0xA40 JUMP JUMPDEST SWAP3 POP DUP3 DUP3 MUL PUSH2 0x1041 DUP2 PUSH2 0xA40 JUMP JUMPDEST SWAP2 POP DUP3 DUP3 DIV DUP5 EQ DUP4 ISZERO OR PUSH2 0x1058 JUMPI PUSH2 0x1057 PUSH2 0xECB JUMP JUMPDEST JUMPDEST POP SWAP3 SWAP2 POP POP JUMP JUMPDEST PUSH32 0x4E487B7100000000000000000000000000000000000000000000000000000000 PUSH1 0x0 MSTORE PUSH1 0x12 PUSH1 0x4 MSTORE PUSH1 0x24 PUSH1 0x0 REVERT JUMPDEST PUSH1 0x0 PUSH2 0x1099 DUP3 PUSH2 0xA40 JUMP JUMPDEST SWAP2 POP PUSH2 0x10A4 DUP4 PUSH2 0xA40 JUMP JUMPDEST SWAP3 POP DUP3 PUSH2 0x10B4 JUMPI PUSH2 0x10B3 PUSH2 0x105F JUMP JUMPDEST JUMPDEST DUP3 DUP3 DIV SWAP1 POP SWAP3 SWAP2 POP POP JUMP INVALID LOG2 PUSH5 0x6970667358 0x22 SLT KECCAK256 0xE8 GASLIMIT JUMPDEST SHL LOG1 CHAINID 0xCD PUSH25 0x5E30346C2CAB30D7A423F6C0CB585D793BDEC2655C14949564 PUSH20 0x6F6C634300081800330000000000000000000000 "
        },
        "methodIdentifiers": {
          "MONTHLY_RATE()": "3986ebce",
          "YEARLY()": "c1746443",
          "stakeToken(uint8,uint256)": "d405bd49",
          "withdrawStaking()": "dcee7fe3"
        }
      }
    }
  }
}