{
  "_format": "hh-sol-artifact-1",
  "contractName": "StakeToken",
  "sourceName": "contracts/StakeToken.sol",
  "abi": [
    {
      "inputs": [
        {
          "internalType": "address",
          "name": "_tokenAddress",
          "type": "address"
        }
      ],
      "stateMutability": "nonpayable",
      "type": "constructor"
    },
    {
      "inputs": [],
      "name": "NotOwner",
      "type": "error"
    },
    {
      "anonymous": false,
      "inputs": [
        {
          "indexed": true,
          "internalType": "address",
          "name": "_address",
          "type": "address"
        },
        {
          "indexed": false,
          "internalType": "enum StakeToken.Duration",
          "name": "_duration",
          "type": "uint8"
        },
        {
          "indexed": false,
          "internalType": "uint256",
          "name": "balance",
          "type": "uint256"
        }
      ],
      "name": "Deposited",
      "type": "event"
    },
    {
      "anonymous": false,
      "inputs": [
        {
          "indexed": true,
          "internalType": "address",
          "name": "_address",
          "type": "address"
        },
        {
          "indexed": false,
          "internalType": "uint256",
          "name": "totalReward",
          "type": "uint256"
        }
      ],
      "name": "WithDrawalSucessful",
      "type": "event"
    },
    {
      "inputs": [],
      "name": "MONTHLY_RATE",
      "outputs": [
        {
          "internalType": "uint256",
          "name": "",
          "type": "uint256"
        }
      ],
      "stateMutability": "view",
      "type": "function"
    },
    {
      "inputs": [],
      "name": "YEARLY",
      "outputs": [
        {
          "internalType": "uint256",
          "name": "",
          "type": "uint256"
        }
      ],
      "stateMutability": "view",
      "type": "function"
    },
    {
      "inputs": [
        {
          "internalType": "enum StakeToken.Duration",
          "name": "_duration",
          "type": "uint8"
        },
        {
          "internalType": "uint256",
          "name": "_amount",
          "type": "uint256"
        }
      ],
      "name": "stakeToken",
      "outputs": [],
      "stateMutability": "payable",
      "type": "function"
    },
    {
      "inputs": [],
      "name": "withdrawStaking",
      "outputs": [],
      "stateMutability": "nonpayable",
      "type": "function"
    },
    {
      "stateMutability": "payable",
      "type": "receive"
    }
  ],
  "bytecode": "0x60806040523480156200001157600080fd5b506040516200126038038062001260833981810160405281019062000037919062000129565b336000806101000a81548173ffffffffffffffffffffffffffffffffffffffff021916908373ffffffffffffffffffffffffffffffffffffffff16021790555080600160006101000a81548173ffffffffffffffffffffffffffffffffffffffff021916908373ffffffffffffffffffffffffffffffffffffffff160217905550506200015b565b600080fd5b600073ffffffffffffffffffffffffffffffffffffffff82169050919050565b6000620000f182620000c4565b9050919050565b6200010381620000e4565b81146200010f57600080fd5b50565b6000815190506200012381620000f8565b92915050565b600060208284031215620001425762000141620000bf565b5b6000620001528482850162000112565b91505092915050565b6110f5806200016b6000396000f3fe6080604052600436106100435760003560e01c80633986ebce1461004f578063c17464431461007a578063d405bd49146100a5578063dcee7fe3146100c15761004a565b3661004a57005b600080fd5b34801561005b57600080fd5b506100646100d8565b6040516100719190610a59565b60405180910390f35b34801561008657600080fd5b5061008f6100dd565b60405161009c9190610a59565b60405180910390f35b6100bf60048036038101906100ba9190610aca565b6100e2565b005b3480156100cd57600080fd5b506100d66104ab565b005b600581565b603c81565b600060038111156100f6576100f5610b0a565b5b82600381111561010957610108610b0a565b5b148061013957506002600381111561012457610123610b0a565b5b82600381111561013757610136610b0a565b5b145b8061016857506001600381111561015357610152610b0a565b5b82600381111561016657610165610b0a565b5b145b80610196575060038081111561018157610180610b0a565b5b82600381111561019457610193610b0a565b5b145b6101d5576040517f08c379a00000000000000000000000000000000000000000000000000000000081526004016101cc90610b96565b60405180910390fd5b6000600160009054906101000a900473ffffffffffffffffffffffffffffffffffffffff1673ffffffffffffffffffffffffffffffffffffffff166370a08231336040518263ffffffff1660e01b81526004016102329190610bf7565b602060405180830381865afa15801561024f573d6000803e3d6000fd5b505050506040513d601f19601f820116820180604052508101906102739190610c27565b9050818110156102b8576040517f08c379a00000000000000000000000000000000000000000000000000000000081526004016102af90610cc6565b60405180910390fd5b6000600260003373ffffffffffffffffffffffffffffffffffffffff1673ffffffffffffffffffffffffffffffffffffffff1681526020019081526020016000209050600015158160030160009054906101000a900460ff16151514610353576040517f08c379a000000000000000000000000000000000000000000000000000000000815260040161034a90610d32565b60405180910390fd5b600160009054906101000a900473ffffffffffffffffffffffffffffffffffffffff1673ffffffffffffffffffffffffffffffffffffffff166323b872dd3330866040518463ffffffff1660e01b81526004016103b293929190610d52565b6020604051808303816000875af11580156103d1573d6000803e3d6000fd5b505050506040513d601f19601f820116820180604052508101906103f59190610dc1565b5042816001018190555060018160030160006101000a81548160ff021916908315150217905550838160030160016101000a81548160ff0219169083600381111561044357610442610b0a565b5b02179055503481600201819055503373ffffffffffffffffffffffffffffffffffffffff167f1d0787aee899a49ef81d0b11da9aca5455b46aefed042a41bd398d74619cab0085836002015460405161049d929190610e36565b60405180910390a250505050565b6000600260003373ffffffffffffffffffffffffffffffffffffffff1673ffffffffffffffffffffffffffffffffffffffff1681526020019081526020016000209050600115158160030160009054906101000a900460ff16151514610546576040517f08c379a000000000000000000000000000000000000000000000000000000000815260040161053d90610eab565b60405180910390fd5b600080600381111561055b5761055a610b0a565b5b8260030160019054906101000a900460ff16600381111561057f5761057e610b0a565b5b0361059a5762278d0082600101546105979190610efa565b90505b600160038111156105ae576105ad610b0a565b5b8260030160019054906101000a900460ff1660038111156105d2576105d1610b0a565b5b036105ed576276a70082600101546105ea9190610efa565b90505b6002600381111561060157610600610b0a565b5b8260030160019054906101000a900460ff16600381111561062557610624610b0a565b5b0361064057624f1a00826001015461063d9190610efa565b90505b60038081111561065357610652610b0a565b5b8260030160019054906101000a900460ff16600381111561067757610676610b0a565b5b03610693576301e1338082600101546106909190610efa565b90505b6000610769836040518060a00160405290816000820160009054906101000a900473ffffffffffffffffffffffffffffffffffffffff1673ffffffffffffffffffffffffffffffffffffffff1673ffffffffffffffffffffffffffffffffffffffff16815260200160018201548152602001600282015481526020016003820160009054906101000a900460ff161515151581526020016003820160019054906101000a900460ff16600381111561074e5761074d610b0a565b5b60038111156107605761075f610b0a565b5b815250506108e2565b905082600101544210156107b2576040517f08c379a00000000000000000000000000000000000000000000000000000000081526004016107a990610fa0565b60405180910390fd5b60008184600201546107c49190610efa565b90506000846002018190555060008460030160006101000a81548160ff021916908315150217905550600160009054906101000a900473ffffffffffffffffffffffffffffffffffffffff1673ffffffffffffffffffffffffffffffffffffffff1663a9059cbb33836040518363ffffffff1660e01b815260040161084a929190610fc0565b6020604051808303816000875af1158015610869573d6000803e3d6000fd5b505050506040513d601f19601f8201168201806040525081019061088d9190610dc1565b503373ffffffffffffffffffffffffffffffffffffffff167f39f463c7a2e15d846aa8be0a40a1dd2fca9e605085f5fedca23fc5fced447ad8826040516108d49190610a59565b60405180910390a250505050565b6000808260200151426108f59190610fe9565b90506000806000600381111561090e5761090d610b0a565b5b8560800151600381111561092557610924610b0a565b5b03610935576005915062278d0090505b6001600381111561094957610948610b0a565b5b856080015160038111156109605761095f610b0a565b5b0361097c5760026005610973919061101d565b9150624f1a0090505b600260038111156109905761098f610b0a565b5b856080015160038111156109a7576109a6610b0a565b5b036109c357600360056109ba919061101d565b91506276a70090505b6003808111156109d6576109d5610b0a565b5b856080015160038111156109ed576109ec610b0a565b5b036109fe57603c91506301e1338090505b6000606482610a0d919061101d565b84848860400151610a1e919061101d565b610a28919061101d565b610a32919061108e565b905080945050505050919050565b6000819050919050565b610a5381610a40565b82525050565b6000602082019050610a6e6000830184610a4a565b92915050565b600080fd5b60048110610a8657600080fd5b50565b600081359050610a9881610a79565b92915050565b610aa781610a40565b8114610ab257600080fd5b50565b600081359050610ac481610a9e565b92915050565b60008060408385031215610ae157610ae0610a74565b5b6000610aef85828601610a89565b9250506020610b0085828601610ab5565b9150509250929050565b7f4e487b7100000000000000000000000000000000000000000000000000000000600052602160045260246000fd5b600082825260208201905092915050565b7f456e74657220612076616c6964204475726174696f6e00000000000000000000600082015250565b6000610b80601683610b39565b9150610b8b82610b4a565b602082019050919050565b60006020820190508181036000830152610baf81610b73565b9050919050565b600073ffffffffffffffffffffffffffffffffffffffff82169050919050565b6000610be182610bb6565b9050919050565b610bf181610bd6565b82525050565b6000602082019050610c0c6000830184610be8565b92915050565b600081519050610c2181610a9e565b92915050565b600060208284031215610c3d57610c3c610a74565b5b6000610c4b84828501610c12565b91505092915050565b7f596f7520646f6e7420686176652073756666696369656e7420546f6b656e207460008201527f6f207374616b6500000000000000000000000000000000000000000000000000602082015250565b6000610cb0602783610b39565b9150610cbb82610c54565b604082019050919050565b60006020820190508181036000830152610cdf81610ca3565b9050919050565b7f596f752063616e2774207374616b652074776963650000000000000000000000600082015250565b6000610d1c601583610b39565b9150610d2782610ce6565b602082019050919050565b60006020820190508181036000830152610d4b81610d0f565b9050919050565b6000606082019050610d676000830186610be8565b610d746020830185610be8565b610d816040830184610a4a565b949350505050565b60008115159050919050565b610d9e81610d89565b8114610da957600080fd5b50565b600081519050610dbb81610d95565b92915050565b600060208284031215610dd757610dd6610a74565b5b6000610de584828501610dac565b91505092915050565b60048110610dff57610dfe610b0a565b5b50565b6000819050610e1082610dee565b919050565b6000610e2082610e02565b9050919050565b610e3081610e15565b82525050565b6000604082019050610e4b6000830185610e27565b610e586020830184610a4a565b9392505050565b7f596f752068617665206e6f207374616b65000000000000000000000000000000600082015250565b6000610e95601183610b39565b9150610ea082610e5f565b602082019050919050565b60006020820190508181036000830152610ec481610e88565b9050919050565b7f4e487b7100000000000000000000000000000000000000000000000000000000600052601160045260246000fd5b6000610f0582610a40565b9150610f1083610a40565b9250828201905080821115610f2857610f27610ecb565b5b92915050565b7f596f752063616e277420776974686472617720796f7572207374616b6520796560008201527f7400000000000000000000000000000000000000000000000000000000000000602082015250565b6000610f8a602183610b39565b9150610f9582610f2e565b604082019050919050565b60006020820190508181036000830152610fb981610f7d565b9050919050565b6000604082019050610fd56000830185610be8565b610fe26020830184610a4a565b9392505050565b6000610ff482610a40565b9150610fff83610a40565b925082820390508181111561101757611016610ecb565b5b92915050565b600061102882610a40565b915061103383610a40565b925082820261104181610a40565b9150828204841483151761105857611057610ecb565b5b5092915050565b7f4e487b7100000000000000000000000000000000000000000000000000000000600052601260045260246000fd5b600061109982610a40565b91506110a483610a40565b9250826110b4576110b361105f565b5b82820490509291505056fea26469706673582212200f11ee87cfaccb7d6d8099d28ed7cad8a77a62b7d9093743f74399ce43e7c63064736f6c63430008180033",
  "linkReferences": {},
  "deployedLinkReferences": {}
}