{
  "_format": "hh-sol-artifact-1",
  "contractName": "StakeEther",
  "sourceName": "contracts/StakeEther.sol",
  "abi": [
    {
      "inputs": [],
      "stateMutability": "nonpayable",
      "type": "constructor"
    },
    {
      "inputs": [],
      "name": "NotOwner",
      "type": "error"
    },
    {
      "anonymous": false,
      "inputs": [
        {
          "indexed": true,
          "internalType": "address",
          "name": "_address",
          "type": "address"
        },
        {
          "indexed": false,
          "internalType": "enum StakeEther.Duration",
          "name": "_duration",
          "type": "uint8"
        },
        {
          "indexed": false,
          "internalType": "uint256",
          "name": "balance",
          "type": "uint256"
        }
      ],
      "name": "Deposited",
      "type": "event"
    },
    {
      "anonymous": false,
      "inputs": [
        {
          "indexed": true,
          "internalType": "address",
          "name": "_address",
          "type": "address"
        },
        {
          "indexed": false,
          "internalType": "uint256",
          "name": "totalReward",
          "type": "uint256"
        }
      ],
      "name": "WithDrawalSucessful",
      "type": "event"
    },
    {
      "inputs": [],
      "name": "MONTHLY_RATE",
      "outputs": [
        {
          "internalType": "uint256",
          "name": "",
          "type": "uint256"
        }
      ],
      "stateMutability": "view",
      "type": "function"
    },
    {
      "inputs": [],
      "name": "YEARLY",
      "outputs": [
        {
          "internalType": "uint256",
          "name": "",
          "type": "uint256"
        }
      ],
      "stateMutability": "view",
      "type": "function"
    },
    {
      "inputs": [
        {
          "internalType": "enum StakeEther.Duration",
          "name": "_duration",
          "type": "uint8"
        }
      ],
      "name": "stakeEther",
      "outputs": [],
      "stateMutability": "payable",
      "type": "function"
    },
    {
      "inputs": [],
      "name": "withdrawStaking",
      "outputs": [],
      "stateMutability": "nonpayable",
      "type": "function"
    },
    {
      "stateMutability": "payable",
      "type": "receive"
    }
  ],
  "bytecode": "0x608060405234801561001057600080fd5b50336000806101000a81548173ffffffffffffffffffffffffffffffffffffffff021916908373ffffffffffffffffffffffffffffffffffffffff160217905550610df7806100606000396000f3fe6080604052600436106100435760003560e01c80633986ebce1461004f57806381169f2e1461007a578063c174644314610096578063dcee7fe3146100c15761004a565b3661004a57005b600080fd5b34801561005b57600080fd5b506100646100d8565b60405161007191906108dd565b60405180910390f35b610094600480360381019061008f9190610922565b6100dd565b005b3480156100a257600080fd5b506100ab61031e565b6040516100b891906108dd565b60405180910390f35b3480156100cd57600080fd5b506100d6610323565b005b600581565b600060038111156100f1576100f061094f565b5b8160038111156101045761010361094f565b5b148061013457506002600381111561011f5761011e61094f565b5b8160038111156101325761013161094f565b5b145b8061016357506001600381111561014e5761014d61094f565b5b8160038111156101615761016061094f565b5b145b80610191575060038081111561017c5761017b61094f565b5b81600381111561018f5761018e61094f565b5b145b6101d0576040517f08c379a00000000000000000000000000000000000000000000000000000000081526004016101c7906109db565b60405180910390fd5b6000600160003373ffffffffffffffffffffffffffffffffffffffff1673ffffffffffffffffffffffffffffffffffffffff1681526020019081526020016000209050600015158160030160009054906101000a900460ff1615151461026b576040517f08c379a000000000000000000000000000000000000000000000000000000000815260040161026290610a47565b60405180910390fd5b42816001018190555060018160030160006101000a81548160ff021916908315150217905550348160020181905550818160030160016101000a81548160ff021916908360038111156102c1576102c061094f565b5b02179055503373ffffffffffffffffffffffffffffffffffffffff167f1d0787aee899a49ef81d0b11da9aca5455b46aefed042a41bd398d74619cab00838360020154604051610312929190610aaf565b60405180910390a25050565b603c81565b6000600160003373ffffffffffffffffffffffffffffffffffffffff1673ffffffffffffffffffffffffffffffffffffffff1681526020019081526020016000209050600115158160030160009054906101000a900460ff161515146103be576040517f08c379a00000000000000000000000000000000000000000000000000000000081526004016103b590610b24565b60405180910390fd5b60008060038111156103d3576103d261094f565b5b8260030160019054906101000a900460ff1660038111156103f7576103f661094f565b5b036104125762278d00826001015461040f9190610b73565b90505b600160038111156104265761042561094f565b5b8260030160019054906101000a900460ff16600381111561044a5761044961094f565b5b03610465576276a70082600101546104629190610b73565b90505b600260038111156104795761047861094f565b5b8260030160019054906101000a900460ff16600381111561049d5761049c61094f565b5b036104b857624f1a0082600101546104b59190610b73565b90505b6003808111156104cb576104ca61094f565b5b8260030160019054906101000a900460ff1660038111156104ef576104ee61094f565b5b0361050b576301e1338082600101546105089190610b73565b90505b60006105e1836040518060a00160405290816000820160009054906101000a900473ffffffffffffffffffffffffffffffffffffffff1673ffffffffffffffffffffffffffffffffffffffff1673ffffffffffffffffffffffffffffffffffffffff16815260200160018201548152602001600282015481526020016003820160009054906101000a900460ff161515151581526020016003820160019054906101000a900460ff1660038111156105c6576105c561094f565b5b60038111156105d8576105d761094f565b5b81525050610766565b9050826001015442101561062a576040517f08c379a000000000000000000000000000000000000000000000000000000000815260040161062190610c19565b60405180910390fd5b600081846002015461063c9190610b73565b90506000846002018190555060008460030160006101000a81548160ff02191690831515021790555060003373ffffffffffffffffffffffffffffffffffffffff168260405161068b90610c6a565b60006040518083038185875af1925050503d80600081146106c8576040519150601f19603f3d011682016040523d82523d6000602084013e6106cd565b606091505b5050905080610711576040517f08c379a000000000000000000000000000000000000000000000000000000000815260040161070890610ccb565b60405180910390fd5b3373ffffffffffffffffffffffffffffffffffffffff167f39f463c7a2e15d846aa8be0a40a1dd2fca9e605085f5fedca23fc5fced447ad88360405161075791906108dd565b60405180910390a25050505050565b6000808260200151426107799190610ceb565b9050600080600060038111156107925761079161094f565b5b856080015160038111156107a9576107a861094f565b5b036107b9576005915062278d0090505b600160038111156107cd576107cc61094f565b5b856080015160038111156107e4576107e361094f565b5b0361080057600260056107f79190610d1f565b9150624f1a0090505b600260038111156108145761081361094f565b5b8560800151600381111561082b5761082a61094f565b5b03610847576003600561083e9190610d1f565b91506276a70090505b60038081111561085a5761085961094f565b5b856080015160038111156108715761087061094f565b5b0361088257603c91506301e1338090505b60006064826108919190610d1f565b848488604001516108a29190610d1f565b6108ac9190610d1f565b6108b69190610d90565b905080945050505050919050565b6000819050919050565b6108d7816108c4565b82525050565b60006020820190506108f260008301846108ce565b92915050565b600080fd5b6004811061090a57600080fd5b50565b60008135905061091c816108fd565b92915050565b600060208284031215610938576109376108f8565b5b60006109468482850161090d565b91505092915050565b7f4e487b7100000000000000000000000000000000000000000000000000000000600052602160045260246000fd5b600082825260208201905092915050565b7f456e74657220612076616c6964204475726174696f6e00000000000000000000600082015250565b60006109c560168361097e565b91506109d08261098f565b602082019050919050565b600060208201905081810360008301526109f4816109b8565b9050919050565b7f596f752063616e2774207374616b652074776963650000000000000000000000600082015250565b6000610a3160158361097e565b9150610a3c826109fb565b602082019050919050565b60006020820190508181036000830152610a6081610a24565b9050919050565b60048110610a7857610a7761094f565b5b50565b6000819050610a8982610a67565b919050565b6000610a9982610a7b565b9050919050565b610aa981610a8e565b82525050565b6000604082019050610ac46000830185610aa0565b610ad160208301846108ce565b9392505050565b7f596f752068617665206e6f207374616b65000000000000000000000000000000600082015250565b6000610b0e60118361097e565b9150610b1982610ad8565b602082019050919050565b60006020820190508181036000830152610b3d81610b01565b9050919050565b7f4e487b7100000000000000000000000000000000000000000000000000000000600052601160045260246000fd5b6000610b7e826108c4565b9150610b89836108c4565b9250828201905080821115610ba157610ba0610b44565b5b92915050565b7f596f752063616e277420776974686472617720796f7572207374616b6520796560008201527f7400000000000000000000000000000000000000000000000000000000000000602082015250565b6000610c0360218361097e565b9150610c0e82610ba7565b604082019050919050565b60006020820190508181036000830152610c3281610bf6565b9050919050565b600081905092915050565b50565b6000610c54600083610c39565b9150610c5f82610c44565b600082019050919050565b6000610c7582610c47565b9150819050919050565b7f5472616e73616374696f6e204572726f72000000000000000000000000000000600082015250565b6000610cb560118361097e565b9150610cc082610c7f565b602082019050919050565b60006020820190508181036000830152610ce481610ca8565b9050919050565b6000610cf6826108c4565b9150610d01836108c4565b9250828203905081811115610d1957610d18610b44565b5b92915050565b6000610d2a826108c4565b9150610d35836108c4565b9250828202610d43816108c4565b91508282048414831517610d5a57610d59610b44565b5b5092915050565b7f4e487b7100000000000000000000000000000000000000000000000000000000600052601260045260246000fd5b6000610d9b826108c4565b9150610da6836108c4565b925082610db657610db5610d61565b5b82820490509291505056fea26469706673582212204ce20c6e63027e1ba181128e6f4df3f50841e638b251e1064d379f5ff02f887264736f6c63430008180033",
  "linkReferences": {},
  "deployedLinkReferences": {}
}